{
  "contractName": "CommunityToken",
  "abi": [
    {
      "constant": true,
      "inputs": [],
      "name": "name",
      "outputs": [
        {
          "name": "",
          "type": "string"
        }
      ],
      "payable": false,
      "stateMutability": "view",
      "type": "function"
    },
    {
      "constant": true,
      "inputs": [],
      "name": "rewardManager",
      "outputs": [
        {
          "name": "",
          "type": "address"
        }
      ],
      "payable": false,
      "stateMutability": "view",
      "type": "function"
    },
    {
      "constant": true,
      "inputs": [],
      "name": "decimals",
      "outputs": [
        {
          "name": "",
          "type": "uint8"
        }
      ],
      "payable": false,
      "stateMutability": "view",
      "type": "function"
    },
    {
      "constant": true,
      "inputs": [],
      "name": "exponent",
      "outputs": [
        {
          "name": "",
          "type": "uint8"
        }
      ],
      "payable": false,
      "stateMutability": "view",
      "type": "function"
    },
    {
      "constant": true,
      "inputs": [],
      "name": "symbol",
      "outputs": [
        {
          "name": "",
          "type": "string"
        }
      ],
      "payable": false,
      "stateMutability": "view",
      "type": "function"
    },
    {
      "constant": true,
      "inputs": [],
      "name": "poolBalance",
      "outputs": [
        {
          "name": "",
          "type": "uint256"
        }
      ],
      "payable": false,
      "stateMutability": "view",
      "type": "function"
    },
    {
      "constant": true,
      "inputs": [],
      "name": "rewardPotTax",
      "outputs": [
        {
          "name": "",
          "type": "uint256"
        }
      ],
      "payable": false,
      "stateMutability": "view",
      "type": "function"
    },
    {
      "inputs": [
        {
          "name": "_rewardManager",
          "type": "address"
        },
        {
          "name": "_rewardPotTax",
          "type": "uint8"
        },
        {
          "name": "_name",
          "type": "string"
        },
        {
          "name": "_decimals",
          "type": "uint8"
        },
        {
          "name": "_symbol",
          "type": "string"
        },
        {
          "name": "_exponent",
          "type": "uint8"
        }
      ],
      "payable": false,
      "stateMutability": "nonpayable",
      "type": "constructor"
    },
    {
      "anonymous": false,
      "inputs": [
        {
          "indexed": true,
          "name": "owner",
          "type": "address"
        },
        {
          "indexed": true,
          "name": "spender",
          "type": "address"
        },
        {
          "indexed": false,
          "name": "value",
          "type": "uint256"
        }
      ],
      "name": "Approval",
      "type": "event"
    },
    {
      "anonymous": false,
      "inputs": [
        {
          "indexed": true,
          "name": "from",
          "type": "address"
        },
        {
          "indexed": true,
          "name": "to",
          "type": "address"
        },
        {
          "indexed": false,
          "name": "value",
          "type": "uint256"
        }
      ],
      "name": "Transfer",
      "type": "event"
    },
    {
      "anonymous": false,
      "inputs": [
        {
          "indexed": true,
          "name": "from",
          "type": "address"
        },
        {
          "indexed": true,
          "name": "to",
          "type": "address"
        },
        {
          "indexed": false,
          "name": "value",
          "type": "uint256"
        },
        {
          "indexed": false,
          "name": "data",
          "type": "bytes"
        }
      ],
      "name": "Transfer",
      "type": "event"
    },
    {
      "anonymous": false,
      "inputs": [
        {
          "indexed": false,
          "name": "amount",
          "type": "uint256"
        },
        {
          "indexed": false,
          "name": "totalCost",
          "type": "uint256"
        }
      ],
      "name": "Minted",
      "type": "event"
    },
    {
      "anonymous": false,
      "inputs": [
        {
          "indexed": false,
          "name": "amount",
          "type": "uint256"
        },
        {
          "indexed": false,
          "name": "reward",
          "type": "uint256"
        }
      ],
      "name": "Burned",
      "type": "event"
    },
    {
      "constant": true,
      "inputs": [
        {
          "name": "_owner",
          "type": "address"
        }
      ],
      "name": "balanceOf",
      "outputs": [
        {
          "name": "",
          "type": "uint256"
        }
      ],
      "payable": false,
      "stateMutability": "view",
      "type": "function"
    },
    {
      "constant": true,
      "inputs": [],
      "name": "totalSupply",
      "outputs": [
        {
          "name": "",
          "type": "uint256"
        }
      ],
      "payable": false,
      "stateMutability": "view",
      "type": "function"
    },
    {
      "constant": false,
      "inputs": [
        {
          "name": "_from",
          "type": "address"
        },
        {
          "name": "_to",
          "type": "address"
        },
        {
          "name": "_value",
          "type": "uint256"
        }
      ],
      "name": "transferFrom",
      "outputs": [
        {
          "name": "",
          "type": "bool"
        }
      ],
      "payable": false,
      "stateMutability": "nonpayable",
      "type": "function"
    },
    {
      "constant": true,
      "inputs": [
        {
          "name": "numTokens",
          "type": "uint256"
        }
      ],
      "name": "priceToMint",
      "outputs": [
        {
          "name": "",
          "type": "uint256"
        }
      ],
      "payable": false,
      "stateMutability": "view",
      "type": "function"
    },
    {
      "constant": true,
      "inputs": [
        {
          "name": "numTokens",
          "type": "uint256"
        }
      ],
      "name": "rewardForBurn",
      "outputs": [
        {
          "name": "",
          "type": "uint256"
        }
      ],
      "payable": false,
      "stateMutability": "view",
      "type": "function"
    },
    {
      "constant": true,
      "inputs": [
        {
          "name": "numTokens",
          "type": "uint256"
        }
      ],
      "name": "purchaseTax",
      "outputs": [
        {
          "name": "",
          "type": "uint256"
        }
      ],
      "payable": false,
      "stateMutability": "view",
      "type": "function"
    },
    {
      "constant": false,
      "inputs": [
        {
          "name": "numTokens",
          "type": "uint256"
        }
      ],
      "name": "burn",
      "outputs": [],
      "payable": false,
      "stateMutability": "nonpayable",
      "type": "function"
    },
    {
      "constant": false,
      "inputs": [
        {
          "name": "numTokens",
          "type": "uint256"
        }
      ],
      "name": "mint",
      "outputs": [],
      "payable": true,
      "stateMutability": "payable",
      "type": "function"
    },
    {
      "constant": false,
      "inputs": [
        {
          "name": "_to",
          "type": "address"
        },
        {
          "name": "_value",
          "type": "uint256"
        }
      ],
      "name": "transfer",
      "outputs": [
        {
          "name": "",
          "type": "bool"
        }
      ],
      "payable": false,
      "stateMutability": "nonpayable",
      "type": "function"
    },
    {
      "constant": false,
      "inputs": [
        {
          "name": "_to",
          "type": "address"
        },
        {
          "name": "_value",
          "type": "uint256"
        },
        {
          "name": "_data",
          "type": "bytes"
        }
      ],
      "name": "transfer",
      "outputs": [],
      "payable": false,
      "stateMutability": "nonpayable",
      "type": "function"
    }
  ],
  "bytecode": "0x60806040526006805461ff00191661120017905534801561001f57600080fd5b50604051610f01380380610f018339810160409081528151602080840151928401516060850151608086015160a087015160008054600160a060020a031916600160a060020a03881617905560ff871660015592870180519597909592949101929161009191600491908701906100d9565b506006805461ff00191661010060ff86160217905581516100b99060059060208501906100d9565b506006805460ff191660ff92909216919091179055506101749350505050565b828054600181600116156101000203166002900490600052602060002090601f016020900481019282601f1061011a57805160ff1916838001178555610147565b82800160010185558215610147579182015b8281111561014757825182559160200191906001019061012c565b50610153929150610157565b5090565b61017191905b80821115610153576000815560010161015d565b90565b610d7e806101836000396000f3006080604052600436106100f05763ffffffff7c010000000000000000000000000000000000000000000000000000000060003504166306fdde0381146100f55780630f4ef8a61461017f57806318160ddd146101b057806323b872dd146101d7578063313ce5671461021557806342966c681461024057806352f6ee581461025a57806370a082311461026f57806395d89b411461029057806396365d44146102a5578063a0712d68146102ba578063a9059cbb146102c5578063b9d36743146102e9578063be45fd6214610301578063be8f0f9d1461036a578063c544682b14610382578063f15e00491461039a575b600080fd5b34801561010157600080fd5b5061010a6103af565b6040805160208082528351818301528351919283929083019185019080838360005b8381101561014457818101518382015260200161012c565b50505050905090810190601f1680156101715780820380516001836020036101000a031916815260200191505b509250505060405180910390f35b34801561018b57600080fd5b5061019461043d565b60408051600160a060020a039092168252519081900360200190f35b3480156101bc57600080fd5b506101c561044c565b60408051918252519081900360200190f35b3480156101e357600080fd5b50610201600160a060020a0360043581169060243516604435610452565b604080519115158252519081900360200190f35b34801561022157600080fd5b5061022a6105c9565b6040805160ff9092168252519081900360200190f35b34801561024c57600080fd5b506102586004356105d7565b005b34801561026657600080fd5b5061022a6106c8565b34801561027b57600080fd5b506101c5600160a060020a03600435166106d1565b34801561029c57600080fd5b5061010a6106ec565b3480156102b157600080fd5b506101c5610747565b61025860043561074d565b3480156102d157600080fd5b50610201600160a060020a0360043516602435610893565b3480156102f557600080fd5b506101c5600435610975565b34801561030d57600080fd5b50604080516020600460443581810135601f8101849004840285018401909552848452610258948235600160a060020a03169460248035953695946064949201919081908401838280828437509497506109a69650505050505050565b34801561037657600080fd5b506101c5600435610c52565b34801561038e57600080fd5b506101c5600435610c7a565b3480156103a657600080fd5b506101c5610ca6565b6004805460408051602060026001851615610100026000190190941693909304601f810184900484028201840190925281815292918301828280156104355780601f1061040a57610100808354040283529160200191610435565b820191906000526020600020905b81548152906001019060200180831161041857829003601f168201915b505050505081565b600054600160a060020a031681565b60035490565b600160a060020a03831660009081526008602052604081205482111561047757600080fd5b600160a060020a03841660009081526007602090815260408083203384529091529020548211156104a757600080fd5b600160a060020a03831615156104bc57600080fd5b600160a060020a0384166000908152600860205260409020546104e5908363ffffffff610cac16565b600160a060020a03808616600090815260086020526040808220939093559085168152205461051a908363ffffffff610cbe16565b600160a060020a03808516600090815260086020908152604080832094909455918716815260078252828120338252909152205461055e908363ffffffff610cac16565b600160a060020a03808616600081815260076020908152604080832033845282529182902094909455805186815290519287169391927fddf252ad1be2c89b69c2b068fc378daa952ba7f163c4a11628f55a4df523b3ef929181900390910190a35060019392505050565b600654610100900460ff1681565b336000908152600860205260408120548211156105f357600080fd5b6105fc82610c7a565b600354909150610612908363ffffffff610cac16565b60035533600090815260086020526040902054610635908363ffffffff610cac16565b33600090815260086020526040902055600254610658908263ffffffff610cac16565b600255604051339082156108fc029083906000818181858888f19350505050158015610688573d6000803e3d6000fd5b50604080518381526020810183905281517fcec1bae6e024d929f2929f3478ce70f55f9c636c8ef7b5073a61d7c3a432451b929181900390910190a15050565b60065460ff1681565b600160a060020a031660009081526008602052604090205490565b6005805460408051602060026001851615610100026000190190941693909304601f810184900484028201840190925281815292918301828280156104355780601f1061040a57610100808354040283529160200191610435565b60025481565b60008061075983610975565b91503482111561076857600080fd5b60035461077b908463ffffffff610cbe16565b60035561078783610c52565b90506107b861079c848363ffffffff610cac16565b336000908152600860205260409020549063ffffffff610cbe16565b33600090815260086020526040808220929092558054600160a060020a0316815220546107eb908263ffffffff610cbe16565b60008054600160a060020a0316815260086020526040902055600254610817908363ffffffff610cbe16565b600255348210156108535760405133903484900380156108fc02916000818181858888f19350505050158015610851573d6000803e3d6000fd5b505b604080518481526020810184905281517f8a9dcf4e150b1153011b29fec302d5be0c13e84fa8f56ab78587f778a32a90dd929181900390910190a1505050565b336000908152600860205260408120548211156108af57600080fd5b600160a060020a03831615156108c457600080fd5b336000908152600860205260409020546108e4908363ffffffff610cac16565b3360009081526008602052604080822092909255600160a060020a03851681522054610916908363ffffffff610cbe16565b600160a060020a0384166000818152600860209081526040918290209390935580518581529051919233927fddf252ad1be2c89b69c2b068fc378daa952ba7f163c4a11628f55a4df523b3ef9281900390910190a35060015b92915050565b600061096f60025461099a61099585600354610cbe90919063ffffffff16565b610ccb565b9063ffffffff610cac16565b6000808311610a1657604080517f08c379a000000000000000000000000000000000000000000000000000000000815260206004820152601760248201527f5472616e7366657220616d6f756e7420696e76616c6964000000000000000000604482015290519081900360640190fd5b610a2884600160a060020a0316610d0c565b15610b1c57506040517fc0ee0b8a0000000000000000000000000000000000000000000000000000000081523360048201818152602483018590526060604484019081528451606485015284518794600160a060020a0386169463c0ee0b8a9490938993899360840190602085019080838360005b83811015610ab5578181015183820152602001610a9d565b50505050905090810190601f168015610ae25780820380516001836020036101000a031916815260200191505b50945050505050600060405180830381600087803b158015610b0357600080fd5b505af1158015610b17573d6000803e3d6000fd5b505050505b33600090815260086020526040902054610b3c908463ffffffff610cac16565b3360009081526008602052604080822092909255600160a060020a03861681522054610b6e908463ffffffff610cbe16565b6008600086600160a060020a0316600160a060020a031681526020019081526020016000208190555083600160a060020a031633600160a060020a03167fe19260aff97b920c7df27010903aeb9c8d2be5d310a2c67824cf3f15396e4c1685856040518083815260200180602001828103825283818151815260200191508051906020019080838360005b83811015610c11578181015183820152602001610bf9565b50505050905090810190601f168015610c3e5780820380516001836020036101000a031916815260200191505b50935050505060405180910390a350505050565b600061096f6064610c6e60015485610d1490919063ffffffff16565b9063ffffffff610d3d16565b600061096f610c9761099584600354610cac90919063ffffffff16565b6002549063ffffffff610cac16565b60015481565b600082821115610cb857fe5b50900390565b8181018281101561096f57fe5b60065460009060ff90811660010116610d056402540be400610c6e83860a610cf9838663ffffffff610d3d16565b9063ffffffff610d1416565b9392505050565b6000903b1190565b6000821515610d255750600061096f565b50818102818382811515610d3557fe5b041461096f57fe5b60008183811515610d4a57fe5b0493925050505600a165627a7a723058209a2caa78fce79cf65d74520d519549bccc75c723f504a0666be5e25a9c2bf9870029",
  "source": "pragma solidity ^0.4.24;\n\ninterface ERC223Receiver { \n    function tokenFallback(address _from, uint _value, bytes _data) external;\n}\n\nlibrary AddressUtils {\n\n  /**\n   * Returns whether the target address is a contract\n   * @dev This function will return false if invoked during the constructor of a contract,\n   *  as the code is not actually created until after the constructor finishes.\n   * @param addr address to check\n   * @return whether the target address is a contract\n   */\n    function isContract(address addr) internal view returns (bool) {\n        uint256 size;\n        // XXX Currently there is no better way to check if there is a contract in an address\n        // than to check the size of the code at that address.\n        // See https://ethereum.stackexchange.com/a/14016/36603\n        // for more details about how this works.\n        // TODO Check this again before the Serenity release, because all addresses will be\n        // contracts then.\n        assembly { size := extcodesize(addr) }  // solium-disable-line security/no-inline-assembly\n        return size > 0;\n    }\n\n}\n\nlibrary SafeMath {\n\n    /**\n    * @dev Multiplies two numbers, throws on overflow.\n    */\n    function mul(uint256 _a, uint256 _b) internal pure returns (uint256 c) {\n        // Gas optimization: this is cheaper than asserting 'a' not being zero, but the\n        // benefit is lost if 'b' is also tested.\n        // See: https://github.com/OpenZeppelin/openzeppelin-solidity/pull/522\n        if (_a == 0) {\n            return 0;\n        }\n\n        c = _a * _b;\n        assert(c / _a == _b);\n        return c;\n    }\n\n    /**\n    * @dev Integer division of two numbers, truncating the quotient.\n    */\n    function div(uint256 _a, uint256 _b) internal pure returns (uint256) {\n        // assert(_b > 0); // Solidity automatically throws when dividing by 0\n        // uint256 c = _a / _b;\n        // assert(_a == _b * c + _a % _b); // There is no case in which this doesn't hold\n        return _a / _b;\n    }\n\n    /**\n    * @dev Subtracts two numbers, throws on overflow (i.e. if subtrahend is greater than minuend).\n    */\n    function sub(uint256 _a, uint256 _b) internal pure returns (uint256) {\n        assert(_b <= _a);\n        return _a - _b;\n    }\n\n    /**\n    * @dev Adds two numbers, throws on overflow.\n    */\n    function add(uint256 _a, uint256 _b) internal pure returns (uint256 c) {\n        c = _a + _b;\n        assert(c >= _a);\n        return c;\n    }\n}\n\n\ncontract CommunityToken  {\n    using SafeMath for uint256;\n    using AddressUtils for address;\n    \n    address public rewardManager;\n    uint256 public rewardPotTax;\n    uint256 public poolBalance;\n\n    uint256 internal totalSupply_;\n\n    uint256 constant private PRECISION = 10000000000;\n    string public name;\n    string public symbol;\n    uint8 public exponent;\n    uint8 public decimals = 18;\n\n    mapping (address => mapping (address => uint256)) internal allowed;\n    mapping(address => uint256) internal balances;\n\n    event Approval(\n      address indexed owner,\n      address indexed spender,\n      uint256 value\n    );\n\n    event Transfer(address indexed from, address indexed to, uint value);\n    event Transfer(address indexed from, address indexed to, uint value, bytes data);\n\n    event Minted(uint256 amount, uint256 totalCost);\n    event Burned(uint256 amount, uint256 reward);\n\n\n    constructor(\n        address _rewardManager,\n        uint8 _rewardPotTax,\n        string _name,\n        uint8 _decimals,\n        string _symbol,\n        uint8 _exponent\n    ) public {\n\n        rewardManager = _rewardManager;\n        rewardPotTax = _rewardPotTax;\n\n        name = _name;\n        decimals = _decimals;\n        symbol = _symbol;\n        exponent = _exponent;\n\n    }\n\n    /**\n    * @dev Gets the balance of the specified address.\n    * @param _owner The address to query the the balance of.\n    * @return An uint256 representing the amount owned by the passed address.\n    */\n    function balanceOf(address _owner) public view returns (uint256) {\n        return balances[_owner];\n    }\n\n    /**\n    * @dev Total number of tokens in existence\n    */\n    function totalSupply() public view returns (uint256) {\n        return totalSupply_;\n    }\n\n    /**\n    * @dev Transfer token for a specified address\n    * @param _to The address to transfer to.\n    * @param _value The amount to be transferred.\n    */\n    function transfer(address _to, uint256 _value) public returns (bool) {\n        require(_value <= balances[msg.sender]);\n        require(_to != address(0));\n\n        balances[msg.sender] = balances[msg.sender].sub(_value);\n        balances[_to] = balances[_to].add(_value);\n        emit Transfer(msg.sender, _to, _value);\n        return true;\n    }\n\n  \n    /**\n     * @dev Transfer tokens from one address to another\n     * @param _from address The address which you want to send tokens from\n     * @param _to address The address which you want to transfer to\n     * @param _value uint256 the amount of tokens to be transferred\n     */\n    function transferFrom(\n        address _from,\n        address _to,\n        uint256 _value\n    )\n        public\n        returns (bool)\n    {\n        require(_value <= balances[_from]);\n        require(_value <= allowed[_from][msg.sender]);\n        require(_to != address(0));\n\n        balances[_from] = balances[_from].sub(_value);\n        balances[_to] = balances[_to].add(_value);\n        allowed[_from][msg.sender] = allowed[_from][msg.sender].sub(_value);\n        emit Transfer(_from, _to, _value);\n        return true;\n    }\n    \n\n    /// @dev        Calculate the integral from 0 to t\n    /// @param t    The number to integrate to\n    function curveIntegral(uint256 t) internal view returns (uint256) {\n        uint256 nexp = exponent + 1;\n        // Calculate integral of t^exponent\n        return PRECISION.div(nexp).mul(t ** nexp).div(PRECISION);\n    }\n\n    function priceToMint(uint256 numTokens) public view returns(uint256) {\n        return curveIntegral(totalSupply_.add(numTokens)).sub(poolBalance);\n    }\n\n    function rewardForBurn(uint256 numTokens) public view returns(uint256) {\n        return poolBalance.sub(curveIntegral(totalSupply_.sub(numTokens)));\n    }\n\n    /// Protea modifications\n    /// @dev                Calculate the Community Added Tax(CAT) for funding the particiaption rewards\n    /// @param numTokens    The number of tokens you want to mint\n    function purchaseTax(uint256 numTokens) public view returns(uint256) {\n        return numTokens.mul(rewardPotTax).div(100);\n    }\n\n    /// @dev                Burn tokens to receive ether\n    /// @param numTokens    The number of tokens that you want to burn\n    function burn(uint256 numTokens) public {\n        require(balances[msg.sender] >= numTokens);\n\n        uint256 ethToReturn = rewardForBurn(numTokens);\n        totalSupply_ = totalSupply_.sub(numTokens);\n        balances[msg.sender] = balances[msg.sender].sub(numTokens);\n        poolBalance = poolBalance.sub(ethToReturn);\n        msg.sender.transfer(ethToReturn);\n\n        emit Burned(numTokens, ethToReturn);\n    }\n\n    /// @dev                Mint new tokens with ether\n    /// @param numTokens    The number of tokens you want to mint\n    /// Notes: We have modified the minting function to tax the purchase tokens\n    /// This behaves as a sort of stake on buyers to participate even at a small scale\n    function mint(uint256 numTokens) public payable {\n        uint256 priceForTokens = priceToMint(numTokens);\n        require(msg.value >= priceForTokens);\n\n        totalSupply_ = totalSupply_.add(numTokens);\n        // Calculating the community tax\n        uint256 communityTax = purchaseTax(numTokens);\n        balances[msg.sender] = balances[msg.sender].add(numTokens.sub(communityTax));\n        // Here we add the tax to the community pot\n        balances[rewardManager] = balances[rewardManager].add(communityTax);\n\n        poolBalance = poolBalance.add(priceForTokens);\n        if (msg.value > priceForTokens) {\n            msg.sender.transfer(msg.value - priceForTokens);\n        }\n\n        emit Minted(numTokens, priceForTokens);\n    }\n\n    function transfer(address _to, uint _value, bytes _data) public {\n        require(_value > 0, \"Transfer amount invalid\");\n        if(_to.isContract()) {\n            ERC223Receiver receiver = ERC223Receiver(_to);\n            receiver.tokenFallback(msg.sender, _value, _data);\n        }\n        balances[msg.sender] = balances[msg.sender].sub(_value);\n        balances[_to] = balances[_to].add(_value);\n        emit Transfer(msg.sender, _to, _value, _data);\n    }\n}\n",
  "sourcePath": "/home/ryan/Documents/repo/ProteaV2Contracts/contracts/CommunityToken.sol",
  "compiler": {
    "name": "solc",
    "version": "0.4.24+commit.e67f0147.Emscripten.clang"
  },
  "schemaVersion": "2.0.1",
  "updatedAt": "2018-10-28T10:27:04.572Z"
}