{
  "contractName": "DaiCommunityToken",
  "abi": [
    {
      "constant": true,
      "inputs": [],
      "name": "name",
      "outputs": [
        {
          "name": "",
          "type": "string"
        }
      ],
      "payable": false,
      "stateMutability": "view",
      "type": "function"
    },
    {
      "constant": true,
      "inputs": [],
      "name": "rewardManager",
      "outputs": [
        {
          "name": "",
          "type": "address"
        }
      ],
      "payable": false,
      "stateMutability": "view",
      "type": "function"
    },
    {
      "constant": true,
      "inputs": [],
      "name": "decimals",
      "outputs": [
        {
          "name": "",
          "type": "uint8"
        }
      ],
      "payable": false,
      "stateMutability": "view",
      "type": "function"
    },
    {
      "constant": true,
      "inputs": [],
      "name": "exponent",
      "outputs": [
        {
          "name": "",
          "type": "uint8"
        }
      ],
      "payable": false,
      "stateMutability": "view",
      "type": "function"
    },
    {
      "constant": true,
      "inputs": [],
      "name": "eventManager",
      "outputs": [
        {
          "name": "",
          "type": "address"
        }
      ],
      "payable": false,
      "stateMutability": "view",
      "type": "function"
    },
    {
      "constant": true,
      "inputs": [],
      "name": "symbol",
      "outputs": [
        {
          "name": "",
          "type": "string"
        }
      ],
      "payable": false,
      "stateMutability": "view",
      "type": "function"
    },
    {
      "constant": true,
      "inputs": [],
      "name": "poolBalance",
      "outputs": [
        {
          "name": "",
          "type": "uint256"
        }
      ],
      "payable": false,
      "stateMutability": "view",
      "type": "function"
    },
    {
      "constant": true,
      "inputs": [],
      "name": "rewardPotTax",
      "outputs": [
        {
          "name": "",
          "type": "uint256"
        }
      ],
      "payable": false,
      "stateMutability": "view",
      "type": "function"
    },
    {
      "constant": true,
      "inputs": [],
      "name": "reserveToken",
      "outputs": [
        {
          "name": "",
          "type": "address"
        }
      ],
      "payable": false,
      "stateMutability": "view",
      "type": "function"
    },
    {
      "inputs": [
        {
          "name": "_rewardManager",
          "type": "address"
        },
        {
          "name": "_rewardPotTax",
          "type": "uint8"
        },
        {
          "name": "_name",
          "type": "string"
        },
        {
          "name": "_decimals",
          "type": "uint8"
        },
        {
          "name": "_symbol",
          "type": "string"
        },
        {
          "name": "_exponent",
          "type": "uint8"
        },
        {
          "name": "_reserveToken",
          "type": "address"
        }
      ],
      "payable": false,
      "stateMutability": "nonpayable",
      "type": "constructor"
    },
    {
      "anonymous": false,
      "inputs": [
        {
          "indexed": true,
          "name": "owner",
          "type": "address"
        },
        {
          "indexed": true,
          "name": "spender",
          "type": "address"
        },
        {
          "indexed": false,
          "name": "value",
          "type": "uint256"
        }
      ],
      "name": "Approval",
      "type": "event"
    },
    {
      "anonymous": false,
      "inputs": [
        {
          "indexed": true,
          "name": "from",
          "type": "address"
        },
        {
          "indexed": true,
          "name": "to",
          "type": "address"
        },
        {
          "indexed": false,
          "name": "value",
          "type": "uint256"
        }
      ],
      "name": "Transfer",
      "type": "event"
    },
    {
      "anonymous": false,
      "inputs": [
        {
          "indexed": true,
          "name": "from",
          "type": "address"
        },
        {
          "indexed": true,
          "name": "to",
          "type": "address"
        },
        {
          "indexed": false,
          "name": "value",
          "type": "uint256"
        },
        {
          "indexed": false,
          "name": "data",
          "type": "bytes"
        }
      ],
      "name": "Transfer",
      "type": "event"
    },
    {
      "anonymous": false,
      "inputs": [
        {
          "indexed": false,
          "name": "amount",
          "type": "uint256"
        },
        {
          "indexed": false,
          "name": "totalCost",
          "type": "uint256"
        }
      ],
      "name": "Minted",
      "type": "event"
    },
    {
      "anonymous": false,
      "inputs": [
        {
          "indexed": false,
          "name": "amount",
          "type": "uint256"
        },
        {
          "indexed": false,
          "name": "reward",
          "type": "uint256"
        }
      ],
      "name": "Burned",
      "type": "event"
    },
    {
      "constant": true,
      "inputs": [
        {
          "name": "_owner",
          "type": "address"
        }
      ],
      "name": "balanceOf",
      "outputs": [
        {
          "name": "",
          "type": "uint256"
        }
      ],
      "payable": false,
      "stateMutability": "view",
      "type": "function"
    },
    {
      "constant": true,
      "inputs": [],
      "name": "totalSupply",
      "outputs": [
        {
          "name": "",
          "type": "uint256"
        }
      ],
      "payable": false,
      "stateMutability": "view",
      "type": "function"
    },
    {
      "constant": false,
      "inputs": [
        {
          "name": "_from",
          "type": "address"
        },
        {
          "name": "_to",
          "type": "address"
        },
        {
          "name": "_value",
          "type": "uint256"
        }
      ],
      "name": "transferFrom",
      "outputs": [
        {
          "name": "",
          "type": "bool"
        }
      ],
      "payable": false,
      "stateMutability": "nonpayable",
      "type": "function"
    },
    {
      "constant": true,
      "inputs": [
        {
          "name": "numTokens",
          "type": "uint256"
        }
      ],
      "name": "priceToMint",
      "outputs": [
        {
          "name": "",
          "type": "uint256"
        }
      ],
      "payable": false,
      "stateMutability": "view",
      "type": "function"
    },
    {
      "constant": true,
      "inputs": [
        {
          "name": "numTokens",
          "type": "uint256"
        }
      ],
      "name": "rewardForBurn",
      "outputs": [
        {
          "name": "",
          "type": "uint256"
        }
      ],
      "payable": false,
      "stateMutability": "view",
      "type": "function"
    },
    {
      "constant": true,
      "inputs": [
        {
          "name": "numTokens",
          "type": "uint256"
        }
      ],
      "name": "purchaseTax",
      "outputs": [
        {
          "name": "",
          "type": "uint256"
        }
      ],
      "payable": false,
      "stateMutability": "view",
      "type": "function"
    },
    {
      "constant": false,
      "inputs": [
        {
          "name": "numTokens",
          "type": "uint256"
        }
      ],
      "name": "burn",
      "outputs": [],
      "payable": false,
      "stateMutability": "nonpayable",
      "type": "function"
    },
    {
      "constant": false,
      "inputs": [
        {
          "name": "numTokens",
          "type": "uint256"
        }
      ],
      "name": "mint",
      "outputs": [],
      "payable": true,
      "stateMutability": "payable",
      "type": "function"
    },
    {
      "constant": false,
      "inputs": [
        {
          "name": "_to",
          "type": "address"
        },
        {
          "name": "_value",
          "type": "uint256"
        },
        {
          "name": "_data",
          "type": "bytes"
        }
      ],
      "name": "transfer",
      "outputs": [],
      "payable": false,
      "stateMutability": "nonpayable",
      "type": "function"
    },
    {
      "constant": false,
      "inputs": [
        {
          "name": "_to",
          "type": "address"
        },
        {
          "name": "_value",
          "type": "uint256"
        }
      ],
      "name": "transfer",
      "outputs": [
        {
          "name": "",
          "type": "bool"
        }
      ],
      "payable": false,
      "stateMutability": "nonpayable",
      "type": "function"
    },
    {
      "constant": false,
      "inputs": [
        {
          "name": "_name",
          "type": "string"
        },
        {
          "name": "_date",
          "type": "string"
        },
        {
          "name": "_location",
          "type": "string"
        },
        {
          "name": "_participantLimit",
          "type": "uint24"
        },
        {
          "name": "_requiredStake",
          "type": "uint256"
        }
      ],
      "name": "createEvent",
      "outputs": [],
      "payable": false,
      "stateMutability": "nonpayable",
      "type": "function"
    },
    {
      "constant": false,
      "inputs": [
        {
          "name": "_index",
          "type": "uint256"
        }
      ],
      "name": "rsvp",
      "outputs": [],
      "payable": false,
      "stateMutability": "nonpayable",
      "type": "function"
    }
  ],
  "bytecode": "0x60806040526008805461ff0019166112001790553480156200002057600080fd5b5060405162001693380380620016938339810160409081528151602080840151928401516060850151608086015160a087015160c088015160018054600160a060020a031916600160a060020a03891617905560ff88166002559388018051969890969395920193909290916200009d9160069188019062000108565b506008805461ff00191661010060ff8716021790558251620000c790600790602086019062000108565b506008805460ff191660ff939093169290921790915560048054600160a060020a031916600160a060020a0390921691909117905550620001ad9350505050565b828054600181600116156101000203166002900490600052602060002090601f016020900481019282601f106200014b57805160ff19168380011785556200017b565b828001600101855582156200017b579182015b828111156200017b5782518255916020019190600101906200015e565b50620001899291506200018d565b5090565b620001aa91905b8082111562000189576000815560010162000194565b90565b6114d680620001bd6000396000f30060806040526004361061011c5763ffffffff7c010000000000000000000000000000000000000000000000000000000060003504166306fdde0381146101215780630f4ef8a6146101ab57806318160ddd146101dc5780631bf192181461020357806323b872dd146102e7578063313ce5671461032557806342966c681461035057806352f6ee581461036857806370a082311461037d5780638fd611be1461039e57806395d89b41146103b357806396365d44146103c8578063a0712d68146103dd578063a9059cbb146103e8578063b7b492f71461040c578063b9d3674314610424578063be45fd621461043c578063be8f0f9d146104a5578063c544682b146104bd578063f15e0049146104d5578063f4325d67146104ea575b600080fd5b34801561012d57600080fd5b506101366104ff565b6040805160208082528351818301528351919283929083019185019080838360005b83811015610170578181015183820152602001610158565b50505050905090810190601f16801561019d5780820380516001836020036101000a031916815260200191505b509250505060405180910390f35b3480156101b757600080fd5b506101c061058d565b60408051600160a060020a039092168252519081900360200190f35b3480156101e857600080fd5b506101f161059c565b60408051918252519081900360200190f35b34801561020f57600080fd5b506040805160206004803580820135601f81018490048402850184019095528484526102e594369492936024939284019190819084018382808284375050604080516020601f89358b018035918201839004830284018301909452808352979a99988101979196509182019450925082915084018382808284375050604080516020601f89358b018035918201839004830284018301909452808352979a9998810197919650918201945092508291508401838280828437509497505050833562ffffff169450505060209091013590506105a2565b005b3480156102f357600080fd5b50610311600160a060020a036004358116906024351660443561089e565b604080519115158252519081900360200190f35b34801561033157600080fd5b5061033a610a15565b6040805160ff9092168252519081900360200190f35b34801561035c57600080fd5b506102e5600435610a23565b34801561037457600080fd5b5061033a610b80565b34801561038957600080fd5b506101f1600160a060020a0360043516610b89565b3480156103aa57600080fd5b506101c0610ba4565b3480156103bf57600080fd5b50610136610bb3565b3480156103d457600080fd5b506101f1610c0e565b6102e5600435610c14565b3480156103f457600080fd5b50610311600160a060020a0360043516602435610dc2565b34801561041857600080fd5b506102e5600435610ea4565b34801561043057600080fd5b506101f16004356110be565b34801561044857600080fd5b50604080516020600460443581810135601f81018490048402850184019095528484526102e5948235600160a060020a03169460248035953695946064949201919081908401838280828437509497506110ef9650505050505050565b3480156104b157600080fd5b506101f160043561139b565b3480156104c957600080fd5b506101f16004356113c3565b3480156104e157600080fd5b506101f16113ef565b3480156104f657600080fd5b506101c06113f5565b6006805460408051602060026001851615610100026000190190941693909304601f810184900484028201840190925281815292918301828280156105855780601f1061055a57610100808354040283529160200191610585565b820191906000526020600020905b81548152906001019060200180831161056857829003601f168201915b505050505081565b600154600160a060020a031681565b60055490565b336000908152600a60205260409020546014111561062157604080517f08c379a000000000000000000000000000000000000000000000000000000000815260206004820152601c60248201527f5265717569726564207374616b65206e6f7420617661696c61626c6500000000604482015290519081900360640190fd5b60015461063890600160a060020a03166014610dc2565b15156106a557604080517f08c379a000000000000000000000000000000000000000000000000000000000815260206004820152601b60248201527f546f6b656e73206e6f74207374616b656420636f72726563746c790000000000604482015290519081900360640190fd5b6000809054906101000a9004600160a060020a0316600160a060020a031663c254f6618686868633876040518763ffffffff167c0100000000000000000000000000000000000000000000000000000000028152600401808060200180602001806020018762ffffff1662ffffff16815260200186600160a060020a0316600160a060020a0316815260200185815260200184810384528a818151815260200191508051906020019080838360005b8381101561076c578181015183820152602001610754565b50505050905090810190601f1680156107995780820380516001836020036101000a031916815260200191505b5084810383528951815289516020918201918b019080838360005b838110156107cc5781810151838201526020016107b4565b50505050905090810190601f1680156107f95780820380516001836020036101000a031916815260200191505b5084810382528851815288516020918201918a019080838360005b8381101561082c578181015183820152602001610814565b50505050905090810190601f1680156108595780820380516001836020036101000a031916815260200191505b509950505050505050505050600060405180830381600087803b15801561087f57600080fd5b505af1158015610893573d6000803e3d6000fd5b505050505050505050565b600160a060020a0383166000908152600a60205260408120548211156108c357600080fd5b600160a060020a03841660009081526009602090815260408083203384529091529020548211156108f357600080fd5b600160a060020a038316151561090857600080fd5b600160a060020a0384166000908152600a6020526040902054610931908363ffffffff61140416565b600160a060020a038086166000908152600a60205260408082209390935590851681522054610966908363ffffffff61141616565b600160a060020a038085166000908152600a602090815260408083209490945591871681526009825282812033825290915220546109aa908363ffffffff61140416565b600160a060020a03808616600081815260096020908152604080832033845282529182902094909455805186815290519287169391927fddf252ad1be2c89b69c2b068fc378daa952ba7f163c4a11628f55a4df523b3ef929181900390910190a35060019392505050565b600854610100900460ff1681565b336000908152600a6020526040812054821115610a3f57600080fd5b610a48826113c3565b600554909150610a5e908363ffffffff61140416565b600555336000908152600a6020526040902054610a81908363ffffffff61140416565b336000908152600a6020526040902055600354610aa4908263ffffffff61140416565b60035560048054604080517fa9059cbb00000000000000000000000000000000000000000000000000000000815233938101939093526024830184905251600160a060020a039091169163a9059cbb9160448083019260209291908290030181600087803b158015610b1557600080fd5b505af1158015610b29573d6000803e3d6000fd5b505050506040513d6020811015610b3f57600080fd5b5050604080518381526020810183905281517fcec1bae6e024d929f2929f3478ce70f55f9c636c8ef7b5073a61d7c3a432451b929181900390910190a15050565b60085460ff1681565b600160a060020a03166000908152600a602052604090205490565b600054600160a060020a031681565b6007805460408051602060026001851615610100026000190190941693909304601f810184900484028201840190925281815292918301828280156105855780601f1061055a57610100808354040283529160200191610585565b60035481565b600080610c20836110be565b60048054604080517f23b872dd00000000000000000000000000000000000000000000000000000000815233938101939093523060248401526044830184905251929450600160a060020a0316916323b872dd916064808201926020929091908290030181600087803b158015610c9657600080fd5b505af1158015610caa573d6000803e3d6000fd5b505050506040513d6020811015610cc057600080fd5b50511515610ccd57600080fd5b600554610ce0908463ffffffff61141616565b600555610cec8361139b565b9050610d1d610d01848363ffffffff61140416565b336000908152600a60205260409020549063ffffffff61141616565b336000908152600a602052604080822092909255600154600160a060020a031681522054610d51908263ffffffff61141616565b600154600160a060020a03166000908152600a6020526040902055600354610d7f908363ffffffff61141616565b600355604080518481526020810184905281517f8a9dcf4e150b1153011b29fec302d5be0c13e84fa8f56ab78587f778a32a90dd929181900390910190a1505050565b336000908152600a6020526040812054821115610dde57600080fd5b600160a060020a0383161515610df357600080fd5b336000908152600a6020526040902054610e13908363ffffffff61140416565b336000908152600a602052604080822092909255600160a060020a03851681522054610e45908363ffffffff61141616565b600160a060020a0384166000818152600a60209081526040918290209390935580518581529051919233927fddf252ad1be2c89b69c2b068fc378daa952ba7f163c4a11628f55a4df523b3ef9281900390910190a35060015b92915050565b60008054604080517fee225e7b000000000000000000000000000000000000000000000000000000008152600481018590529051600160a060020a039092169163ee225e7b9160248082019260209290919082900301818787803b158015610f0b57600080fd5b505af1158015610f1f573d6000803e3d6000fd5b505050506040513d6020811015610f3557600080fd5b5051336000908152600a6020526040902054909150811115610fb857604080517f08c379a000000000000000000000000000000000000000000000000000000000815260206004820152601c60248201527f5265717569726564207374616b65206e6f7420617661696c61626c6500000000604482015290519081900360640190fd5b600154610fce90600160a060020a031682610dc2565b151561103b57604080517f08c379a000000000000000000000000000000000000000000000000000000000815260206004820152601b60248201527f546f6b656e73206e6f74207374616b656420636f72726563746c790000000000604482015290519081900360640190fd5b60008054604080517f6ac71d38000000000000000000000000000000000000000000000000000000008152600481018690523360248201529051600160a060020a0390921692636ac71d389260448084019382900301818387803b1580156110a257600080fd5b505af11580156110b6573d6000803e3d6000fd5b505050505050565b6000610e9e6003546110e36110de8560055461141690919063ffffffff16565b611423565b9063ffffffff61140416565b600080831161115f57604080517f08c379a000000000000000000000000000000000000000000000000000000000815260206004820152601760248201527f5472616e7366657220616d6f756e7420696e76616c6964000000000000000000604482015290519081900360640190fd5b61117184600160a060020a0316611464565b1561126557506040517fc0ee0b8a0000000000000000000000000000000000000000000000000000000081523360048201818152602483018590526060604484019081528451606485015284518794600160a060020a0386169463c0ee0b8a9490938993899360840190602085019080838360005b838110156111fe5781810151838201526020016111e6565b50505050905090810190601f16801561122b5780820380516001836020036101000a031916815260200191505b50945050505050600060405180830381600087803b15801561124c57600080fd5b505af1158015611260573d6000803e3d6000fd5b505050505b336000908152600a6020526040902054611285908463ffffffff61140416565b336000908152600a602052604080822092909255600160a060020a038616815220546112b7908463ffffffff61141616565b600a600086600160a060020a0316600160a060020a031681526020019081526020016000208190555083600160a060020a031633600160a060020a03167fe19260aff97b920c7df27010903aeb9c8d2be5d310a2c67824cf3f15396e4c1685856040518083815260200180602001828103825283818151815260200191508051906020019080838360005b8381101561135a578181015183820152602001611342565b50505050905090810190601f1680156113875780820380516001836020036101000a031916815260200191505b50935050505060405180910390a350505050565b6000610e9e60646113b76002548561146c90919063ffffffff16565b9063ffffffff61149516565b6000610e9e6113e06110de8460055461140490919063ffffffff16565b6003549063ffffffff61140416565b60025481565b600454600160a060020a031681565b60008282111561141057fe5b50900390565b81810182811015610e9e57fe5b60085460009060ff9081166001011661145d6402540be4006113b783860a611451838663ffffffff61149516565b9063ffffffff61146c16565b9392505050565b6000903b1190565b600082151561147d57506000610e9e565b5081810281838281151561148d57fe5b0414610e9e57fe5b600081838115156114a257fe5b0493925050505600a165627a7a72305820567f1fcc9259116fd13007b0f844beb2c8cf234a20efa7820e23dc4c8c757a3f0029",
  "source": "pragma solidity ^0.4.24;\n\ncontract ERC20Basic {\n    function totalSupply() public view returns (uint256);\n    function balanceOf(address _who) public view returns (uint256);\n    function transfer(address _to, uint256 _value) public returns (bool);\n    function allowance(address _owner, address _spender) public view returns (uint256);\n\n    function transferFrom(address _from, address _to, uint256 _value) public returns (bool);\n\n    function approve(address _spender, uint256 _value) public returns (bool);\n    event Approval(\n        address indexed owner,\n        address indexed spender,\n        uint256 value\n    );\n    event Transfer(address indexed from, address indexed to, uint256 value);\n}\n\n\ninterface ERC223Receiver { \n    function tokenFallback(address _from, uint _value, bytes _data) external;\n}\n\nlibrary AddressUtils {\n\n  /**\n   * Returns whether the target address is a contract\n   * @dev This function will return false if invoked during the constructor of a contract,\n   *  as the code is not actually created until after the constructor finishes.\n   * @param addr address to check\n   * @return whether the target address is a contract\n   */\n    function isContract(address addr) internal view returns (bool) {\n        uint256 size;\n        // XXX Currently there is no better way to check if there is a contract in an address\n        // than to check the size of the code at that address.\n        // See https://ethereum.stackexchange.com/a/14016/36603\n        // for more details about how this works.\n        // TODO Check this again before the Serenity release, because all addresses will be\n        // contracts then.\n        assembly { size := extcodesize(addr) }  // solium-disable-line security/no-inline-assembly\n        return size > 0;\n    }\n\n}\n\nlibrary SafeMath {\n\n    /**\n    * @dev Multiplies two numbers, throws on overflow.\n    */\n    function mul(uint256 _a, uint256 _b) internal pure returns (uint256 c) {\n        // Gas optimization: this is cheaper than asserting 'a' not being zero, but the\n        // benefit is lost if 'b' is also tested.\n        // See: https://github.com/OpenZeppelin/openzeppelin-solidity/pull/522\n        if (_a == 0) {\n            return 0;\n        }\n\n        c = _a * _b;\n        assert(c / _a == _b);\n        return c;\n    }\n\n    /**\n    * @dev Integer division of two numbers, truncating the quotient.\n    */\n    function div(uint256 _a, uint256 _b) internal pure returns (uint256) {\n        // assert(_b > 0); // Solidity automatically throws when dividing by 0\n        // uint256 c = _a / _b;\n        // assert(_a == _b * c + _a % _b); // There is no case in which this doesn't hold\n        return _a / _b;\n    }\n\n    /**\n    * @dev Subtracts two numbers, throws on overflow (i.e. if subtrahend is greater than minuend).\n    */\n    function sub(uint256 _a, uint256 _b) internal pure returns (uint256) {\n        assert(_b <= _a);\n        return _a - _b;\n    }\n\n    /**\n    * @dev Adds two numbers, throws on overflow.\n    */\n    function add(uint256 _a, uint256 _b) internal pure returns (uint256 c) {\n        c = _a + _b;\n        assert(c >= _a);\n        return c;\n    }\n}\n\ninterface EventManagerDebug{\n    function createEventDebug(\n        string _name, string _date, string _location, \n        uint24 _participantLimit, address _organiser, uint256 _requiredStake) \n        external;\n    function rsvpDebug(uint256 _index, address _member) external;\n    function getEventStake(uint256 _index) public view returns(uint256);\n}\n\ncontract DaiCommunityToken  {\n    using SafeMath for uint256;\n    using AddressUtils for address;\n    \n    EventManagerDebug public eventManager;\n    address public rewardManager;\n    uint256 public rewardPotTax;\n    uint256 public poolBalance;\n    ERC20Basic public reserveToken;\n\n    uint256 internal totalSupply_;\n\n    uint256 constant private PRECISION = 10000000000;\n    string public name;\n    string public symbol;\n    uint8 public exponent;\n    uint8 public decimals = 18;\n\n    mapping (address => mapping (address => uint256)) internal allowed;\n    mapping(address => uint256) internal balances;\n\n    event Approval(\n      address indexed owner,\n      address indexed spender,\n      uint256 value\n    );\n\n    event Transfer(address indexed from, address indexed to, uint value);\n    event Transfer(address indexed from, address indexed to, uint value, bytes data);\n\n    event Minted(uint256 amount, uint256 totalCost);\n    event Burned(uint256 amount, uint256 reward);\n\n\n    constructor(\n        address _rewardManager,\n        uint8 _rewardPotTax,\n        string _name,\n        uint8 _decimals,\n        string _symbol,\n        uint8 _exponent,\n        address _reserveToken\n    ) public {\n\n        rewardManager = _rewardManager;\n        rewardPotTax = _rewardPotTax;\n\n        name = _name;\n        decimals = _decimals;\n        symbol = _symbol;\n        exponent = _exponent;\n        reserveToken = ERC20Basic(_reserveToken);\n\n    }\n\n    /**\n    * @dev Gets the balance of the specified address.\n    * @param _owner The address to query the the balance of.\n    * @return An uint256 representing the amount owned by the passed address.\n    */\n    function balanceOf(address _owner) public view returns (uint256) {\n        return balances[_owner];\n    }\n\n    /**\n    * @dev Total number of tokens in existence\n    */\n    function totalSupply() public view returns (uint256) {\n        return totalSupply_;\n    }\n\n    /**\n    * @dev Transfer token for a specified address\n    * @param _to The address to transfer to.\n    * @param _value The amount to be transferred.\n    */\n    function transfer(address _to, uint256 _value) public returns (bool) {\n        require(_value <= balances[msg.sender]);\n        require(_to != address(0));\n\n        balances[msg.sender] = balances[msg.sender].sub(_value);\n        balances[_to] = balances[_to].add(_value);\n        emit Transfer(msg.sender, _to, _value);\n        return true;\n    }\n\n  \n    /**\n     * @dev Transfer tokens from one address to another\n     * @param _from address The address which you want to send tokens from\n     * @param _to address The address which you want to transfer to\n     * @param _value uint256 the amount of tokens to be transferred\n     */\n    function transferFrom(\n        address _from,\n        address _to,\n        uint256 _value\n    )\n        public\n        returns (bool)\n    {\n        require(_value <= balances[_from]);\n        require(_value <= allowed[_from][msg.sender]);\n        require(_to != address(0));\n\n        balances[_from] = balances[_from].sub(_value);\n        balances[_to] = balances[_to].add(_value);\n        allowed[_from][msg.sender] = allowed[_from][msg.sender].sub(_value);\n        emit Transfer(_from, _to, _value);\n        return true;\n    }\n    \n\n    /// @dev        Calculate the integral from 0 to t\n    /// @param t    The number to integrate to\n    function curveIntegral(uint256 t) internal view returns (uint256) {\n        uint256 nexp = exponent + 1;\n        // Calculate integral of t^exponent\n        return PRECISION.div(nexp).mul(t ** nexp).div(PRECISION);\n    }\n\n    function priceToMint(uint256 numTokens) public view returns(uint256) {\n        return curveIntegral(totalSupply_.add(numTokens)).sub(poolBalance);\n    }\n\n    function rewardForBurn(uint256 numTokens) public view returns(uint256) {\n        return poolBalance.sub(curveIntegral(totalSupply_.sub(numTokens)));\n    }\n\n    /// Protea modifications\n    /// @dev                Calculate the Community Added Tax(CAT) for funding the particiaption rewards\n    /// @param numTokens    The number of tokens you want to mint\n    function purchaseTax(uint256 numTokens) public view returns(uint256) {\n        return numTokens.mul(rewardPotTax).div(100);\n    }\n\n    /// @dev                Burn tokens to receive ether\n    /// @param numTokens    The number of tokens that you want to burn\n    function burn(uint256 numTokens) public {\n        require(balances[msg.sender] >= numTokens);\n\n        uint256 reserveTokensToReturn = rewardForBurn(numTokens);\n        totalSupply_ = totalSupply_.sub(numTokens);\n        balances[msg.sender] = balances[msg.sender].sub(numTokens);\n        poolBalance = poolBalance.sub(reserveTokensToReturn);\n        reserveToken.transfer(msg.sender, reserveTokensToReturn);\n\n        emit Burned(numTokens, reserveTokensToReturn);\n    }\n\n    /// @dev                Mint new tokens with ether\n    /// @param numTokens    The number of tokens you want to mint\n    /// Notes: We have modified the minting function to tax the purchase tokens\n    /// This behaves as a sort of stake on buyers to participate even at a small scale\n    function mint(uint256 numTokens) public payable {\n        uint256 priceForTokens = priceToMint(numTokens);\n        require(reserveToken.transferFrom(msg.sender, this, priceForTokens));\n\n        totalSupply_ = totalSupply_.add(numTokens);\n        // Calculating the community tax\n        uint256 communityTax = purchaseTax(numTokens);\n        balances[msg.sender] = balances[msg.sender].add(numTokens.sub(communityTax));\n        // Here we add the tax to the community pot\n        balances[rewardManager] = balances[rewardManager].add(communityTax);\n\n        poolBalance = poolBalance.add(priceForTokens);\n\n        emit Minted(numTokens, priceForTokens);\n    }\n\n    function transfer(address _to, uint _value, bytes _data) public {\n        require(_value > 0, \"Transfer amount invalid\");\n        if(_to.isContract()) {\n            ERC223Receiver receiver = ERC223Receiver(_to);\n            receiver.tokenFallback(msg.sender, _value, _data);\n        }\n        balances[msg.sender] = balances[msg.sender].sub(_value);\n        balances[_to] = balances[_to].add(_value);\n        emit Transfer(msg.sender, _to, _value, _data);\n    }\n\n    // Due to being unable to execute encoded function calls through the transfer, we're circumventing that for the sake of the demo\n    function createEvent(string _name, string _date, string _location, uint24 _participantLimit, uint256 _requiredStake) public{\n        require(balances[msg.sender] >= 20, \"Required stake not available\");\n        require(transfer(rewardManager, 20), \"Tokens not staked correctly\");\n        eventManager.createEventDebug(_name, _date, _location, _participantLimit, msg.sender, _requiredStake);\n    }\n\n    function rsvp(uint256 _index) public{\n        uint256 stake = eventManager.getEventStake(_index);\n        require(balances[msg.sender] >= stake, \"Required stake not available\");\n        require(transfer(rewardManager, stake), \"Tokens not staked correctly\");\n        eventManager.rsvpDebug(_index, msg.sender);\n    }\n}\n",
  "sourcePath": "/home/ryan/Documents/repo/ProteaV2Contracts/contracts/DaiCommunityToken.sol",
  "compiler": {
    "name": "solc",
    "version": "0.4.24+commit.e67f0147.Emscripten.clang"
  },
  "schemaVersion": "2.0.1",
  "updatedAt": "2018-10-28T10:27:04.575Z"
}