{
  "contractName": "EthPolynomialCurvedToken",
  "abi": [
    {
      "constant": true,
      "inputs": [],
      "name": "name",
      "outputs": [
        {
          "name": "",
          "type": "string"
        }
      ],
      "payable": false,
      "stateMutability": "view",
      "type": "function"
    },
    {
      "constant": false,
      "inputs": [
        {
          "name": "_spender",
          "type": "address"
        },
        {
          "name": "_value",
          "type": "uint256"
        }
      ],
      "name": "approve",
      "outputs": [
        {
          "name": "",
          "type": "bool"
        }
      ],
      "payable": false,
      "stateMutability": "nonpayable",
      "type": "function"
    },
    {
      "constant": true,
      "inputs": [],
      "name": "totalSupply",
      "outputs": [
        {
          "name": "",
          "type": "uint256"
        }
      ],
      "payable": false,
      "stateMutability": "view",
      "type": "function"
    },
    {
      "constant": false,
      "inputs": [
        {
          "name": "_from",
          "type": "address"
        },
        {
          "name": "_to",
          "type": "address"
        },
        {
          "name": "_value",
          "type": "uint256"
        }
      ],
      "name": "transferFrom",
      "outputs": [
        {
          "name": "",
          "type": "bool"
        }
      ],
      "payable": false,
      "stateMutability": "nonpayable",
      "type": "function"
    },
    {
      "constant": true,
      "inputs": [],
      "name": "decimals",
      "outputs": [
        {
          "name": "",
          "type": "uint8"
        }
      ],
      "payable": false,
      "stateMutability": "view",
      "type": "function"
    },
    {
      "constant": false,
      "inputs": [
        {
          "name": "numTokens",
          "type": "uint256"
        }
      ],
      "name": "burn",
      "outputs": [],
      "payable": false,
      "stateMutability": "nonpayable",
      "type": "function"
    },
    {
      "constant": true,
      "inputs": [],
      "name": "exponent",
      "outputs": [
        {
          "name": "",
          "type": "uint8"
        }
      ],
      "payable": false,
      "stateMutability": "view",
      "type": "function"
    },
    {
      "constant": false,
      "inputs": [
        {
          "name": "_spender",
          "type": "address"
        },
        {
          "name": "_subtractedValue",
          "type": "uint256"
        }
      ],
      "name": "decreaseApproval",
      "outputs": [
        {
          "name": "",
          "type": "bool"
        }
      ],
      "payable": false,
      "stateMutability": "nonpayable",
      "type": "function"
    },
    {
      "constant": true,
      "inputs": [
        {
          "name": "_owner",
          "type": "address"
        }
      ],
      "name": "balanceOf",
      "outputs": [
        {
          "name": "",
          "type": "uint256"
        }
      ],
      "payable": false,
      "stateMutability": "view",
      "type": "function"
    },
    {
      "constant": true,
      "inputs": [],
      "name": "slope",
      "outputs": [
        {
          "name": "",
          "type": "uint32"
        }
      ],
      "payable": false,
      "stateMutability": "view",
      "type": "function"
    },
    {
      "constant": true,
      "inputs": [],
      "name": "symbol",
      "outputs": [
        {
          "name": "",
          "type": "string"
        }
      ],
      "payable": false,
      "stateMutability": "view",
      "type": "function"
    },
    {
      "constant": true,
      "inputs": [],
      "name": "poolBalance",
      "outputs": [
        {
          "name": "",
          "type": "uint256"
        }
      ],
      "payable": false,
      "stateMutability": "view",
      "type": "function"
    },
    {
      "constant": false,
      "inputs": [
        {
          "name": "_to",
          "type": "address"
        },
        {
          "name": "_value",
          "type": "uint256"
        }
      ],
      "name": "transfer",
      "outputs": [
        {
          "name": "",
          "type": "bool"
        }
      ],
      "payable": false,
      "stateMutability": "nonpayable",
      "type": "function"
    },
    {
      "constant": false,
      "inputs": [
        {
          "name": "_spender",
          "type": "address"
        },
        {
          "name": "_addedValue",
          "type": "uint256"
        }
      ],
      "name": "increaseApproval",
      "outputs": [
        {
          "name": "",
          "type": "bool"
        }
      ],
      "payable": false,
      "stateMutability": "nonpayable",
      "type": "function"
    },
    {
      "constant": true,
      "inputs": [
        {
          "name": "_owner",
          "type": "address"
        },
        {
          "name": "_spender",
          "type": "address"
        }
      ],
      "name": "allowance",
      "outputs": [
        {
          "name": "",
          "type": "uint256"
        }
      ],
      "payable": false,
      "stateMutability": "view",
      "type": "function"
    },
    {
      "anonymous": false,
      "inputs": [
        {
          "indexed": false,
          "name": "hash",
          "type": "bytes32"
        },
        {
          "indexed": false,
          "name": "hashFunction",
          "type": "uint8"
        },
        {
          "indexed": false,
          "name": "size",
          "type": "uint8"
        },
        {
          "indexed": false,
          "name": "account",
          "type": "address"
        }
      ],
      "name": "CommentLog",
      "type": "event"
    },
    {
      "anonymous": false,
      "inputs": [
        {
          "indexed": false,
          "name": "hash",
          "type": "bytes32"
        },
        {
          "indexed": false,
          "name": "hashFunction",
          "type": "uint8"
        },
        {
          "indexed": false,
          "name": "size",
          "type": "uint8"
        }
      ],
      "name": "StoreHash",
      "type": "event"
    },
    {
      "anonymous": false,
      "inputs": [
        {
          "indexed": false,
          "name": "amount",
          "type": "uint256"
        },
        {
          "indexed": false,
          "name": "totalCost",
          "type": "uint256"
        }
      ],
      "name": "Minted",
      "type": "event"
    },
    {
      "anonymous": false,
      "inputs": [
        {
          "indexed": false,
          "name": "amount",
          "type": "uint256"
        },
        {
          "indexed": false,
          "name": "reward",
          "type": "uint256"
        }
      ],
      "name": "Burned",
      "type": "event"
    },
    {
      "anonymous": false,
      "inputs": [
        {
          "indexed": true,
          "name": "owner",
          "type": "address"
        },
        {
          "indexed": true,
          "name": "spender",
          "type": "address"
        },
        {
          "indexed": false,
          "name": "value",
          "type": "uint256"
        }
      ],
      "name": "Approval",
      "type": "event"
    },
    {
      "anonymous": false,
      "inputs": [
        {
          "indexed": true,
          "name": "from",
          "type": "address"
        },
        {
          "indexed": true,
          "name": "to",
          "type": "address"
        },
        {
          "indexed": false,
          "name": "value",
          "type": "uint256"
        }
      ],
      "name": "Transfer",
      "type": "event"
    },
    {
      "constant": false,
      "inputs": [
        {
          "name": "_name",
          "type": "string"
        },
        {
          "name": "_decimals",
          "type": "uint8"
        },
        {
          "name": "_symbol",
          "type": "string"
        },
        {
          "name": "_exponent",
          "type": "uint8"
        },
        {
          "name": "_slope",
          "type": "uint32"
        },
        {
          "name": "_hash",
          "type": "bytes32"
        },
        {
          "name": "_hashFunction",
          "type": "uint8"
        },
        {
          "name": "_size",
          "type": "uint8"
        }
      ],
      "name": "initContract",
      "outputs": [],
      "payable": true,
      "stateMutability": "payable",
      "type": "function"
    },
    {
      "constant": false,
      "inputs": [
        {
          "name": "_hash",
          "type": "bytes32"
        },
        {
          "name": "_hashFunction",
          "type": "uint8"
        },
        {
          "name": "_size",
          "type": "uint8"
        }
      ],
      "name": "addComment",
      "outputs": [],
      "payable": false,
      "stateMutability": "nonpayable",
      "type": "function"
    },
    {
      "constant": false,
      "inputs": [
        {
          "name": "numTokens",
          "type": "uint256"
        }
      ],
      "name": "priceToMint",
      "outputs": [
        {
          "name": "",
          "type": "uint256"
        }
      ],
      "payable": false,
      "stateMutability": "nonpayable",
      "type": "function"
    },
    {
      "constant": false,
      "inputs": [
        {
          "name": "numTokens",
          "type": "uint256"
        }
      ],
      "name": "rewardForBurn",
      "outputs": [
        {
          "name": "",
          "type": "uint256"
        }
      ],
      "payable": false,
      "stateMutability": "nonpayable",
      "type": "function"
    }
  ],
  "bytecode": "0x60806040526006805465ff00000000001916651200000000001766ff0000000000001916905534801561003157600080fd5b50610e2c806100416000396000f3006080604052600436106101065763ffffffff7c0100000000000000000000000000000000000000000000000000000000600035041663042d1780811461010b57806306fdde0314610131578063095ea7b3146101bb57806318160ddd146101f357806323b872dd1461021a578063313ce5671461024457806342966c681461026f57806352f6ee5814610287578063661884631461029c57806370a08231146102c057806383caf275146102e157806395d89b411461030f57806396365d4414610324578063a9059cbb14610339578063b9d367431461035d578063c544682b14610375578063d73dd6231461038d578063d8896f21146103b1578063dd62ed3e1461046a575b600080fd5b34801561011757600080fd5b5061012f60043560ff60243581169060443516610491565b005b34801561013d57600080fd5b506101466104df565b6040805160208082528351818301528351919283929083019185019080838360005b83811015610180578181015183820152602001610168565b50505050905090810190601f1680156101ad5780820380516001836020036101000a031916815260200191505b509250505060405180910390f35b3480156101c757600080fd5b506101df600160a060020a036004351660243561056d565b604080519115158252519081900360200190f35b3480156101ff57600080fd5b506102086105d3565b60408051918252519081900360200190f35b34801561022657600080fd5b506101df600160a060020a03600435811690602435166044356105da565b34801561025057600080fd5b5061025961074f565b6040805160ff9092168252519081900360200190f35b34801561027b57600080fd5b5061012f600435610761565b34801561029357600080fd5b50610259610852565b3480156102a857600080fd5b506101df600160a060020a036004351660243561085b565b3480156102cc57600080fd5b50610208600160a060020a036004351661094a565b3480156102ed57600080fd5b506102f6610965565b6040805163ffffffff9092168252519081900360200190f35b34801561031b57600080fd5b50610146610976565b34801561033057600080fd5b506102086109d1565b34801561034557600080fd5b506101df600160a060020a03600435166024356109d7565b34801561036957600080fd5b50610208600435610ab6565b34801561038157600080fd5b50610208600435610aed565b34801561039957600080fd5b506101df600160a060020a0360043516602435610b19565b6040805160206004803580820135601f810184900484028501840190955284845261012f94369492936024939284019190819084018382808284375050604080516020601f818a01358b0180359182018390048302840183018552818452989b60ff8b35169b909a9099940197509195509182019350915081908401838280828437509497505060ff85358116965063ffffffff602087013516956040810135955060608101358216945060800135169150610bb29050565b34801561047657600080fd5b50610208600160a060020a0360043581169060243516610caf565b6040805184815260ff808516602083015283168183015233606082015290517f1de099bbffae98a8a56d4f3f7344e5f80b908424562748de1e814f8298ebb9db9181900360800190a1505050565b6004805460408051602060026001851615610100026000190190941693909304601f810184900484028201840190925281815292918301828280156105655780601f1061053a57610100808354040283529160200191610565565b820191906000526020600020905b81548152906001019060200180831161054857829003601f168201915b505050505081565b336000818152600260209081526040808320600160a060020a038716808552908352818420869055815186815291519394909390927f8c5be1e5ebec7d5bd14f71427d1e84f3dd0314c0f7b2291e5b200ac8c7c3b925928290030190a350600192915050565b6001545b90565b600160a060020a0383166000908152602081905260408120548211156105ff57600080fd5b600160a060020a038416600090815260026020908152604080832033845290915290205482111561062f57600080fd5b600160a060020a038316151561064457600080fd5b600160a060020a03841660009081526020819052604090205461066d908363ffffffff610cda16565b600160a060020a0380861660009081526020819052604080822093909355908516815220546106a2908363ffffffff610cec16565b600160a060020a038085166000908152602081815260408083209490945591871681526002825282812033825290915220546106e4908363ffffffff610cda16565b600160a060020a03808616600081815260026020908152604080832033845282529182902094909455805186815290519287169391927fddf252ad1be2c89b69c2b068fc378daa952ba7f163c4a11628f55a4df523b3ef929181900390910190a35060019392505050565b60065465010000000000900460ff1681565b3360009081526020819052604081205482111561077d57600080fd5b61078682610aed565b60015490915061079c908363ffffffff610cda16565b600155336000908152602081905260409020546107bf908363ffffffff610cda16565b336000908152602081905260409020556003546107e2908263ffffffff610cda16565b600355604051339082156108fc029083906000818181858888f19350505050158015610812573d6000803e3d6000fd5b50604080518381526020810183905281517fcec1bae6e024d929f2929f3478ce70f55f9c636c8ef7b5073a61d7c3a432451b929181900390910190a15050565b60065460ff1681565b336000908152600260209081526040808320600160a060020a03861684529091528120548083106108af57336000908152600260209081526040808320600160a060020a03881684529091528120556108e4565b6108bf818463ffffffff610cda16565b336000908152600260209081526040808320600160a060020a03891684529091529020555b336000818152600260209081526040808320600160a060020a0389168085529083529281902054815190815290519293927f8c5be1e5ebec7d5bd14f71427d1e84f3dd0314c0f7b2291e5b200ac8c7c3b925929181900390910190a35060019392505050565b600160a060020a031660009081526020819052604090205490565b600654610100900463ffffffff1681565b6005805460408051602060026001851615610100026000190190941693909304601f810184900484028201840190925281815292918301828280156105655780601f1061053a57610100808354040283529160200191610565565b60035481565b336000908152602081905260408120548211156109f357600080fd5b600160a060020a0383161515610a0857600080fd5b33600090815260208190526040902054610a28908363ffffffff610cda16565b3360009081526020819052604080822092909255600160a060020a03851681522054610a5a908363ffffffff610cec16565b600160a060020a038416600081815260208181526040918290209390935580518581529051919233927fddf252ad1be2c89b69c2b068fc378daa952ba7f163c4a11628f55a4df523b3ef9281900390910190a350600192915050565b6000610ae7600354610adb610ad685600154610cec90919063ffffffff16565b610cf9565b9063ffffffff610cda16565b92915050565b6000610ae7610b0a610ad684600154610cda90919063ffffffff16565b6003549063ffffffff610cda16565b336000908152600260209081526040808320600160a060020a0386168452909152812054610b4d908363ffffffff610cec16565b336000818152600260209081526040808320600160a060020a0389168085529083529281902085905580519485525191937f8c5be1e5ebec7d5bd14f71427d1e84f3dd0314c0f7b2291e5b200ac8c7c3b925929081900390910190a350600192915050565b6006546601000000000000900460ff1615610bcc57600080fd5b600354158015610bdc5750600154155b1515610be757600080fd5b6006805466ff000000000000191690558751610c0a9060049060208b0190610d68565b506006805465ff000000000019166501000000000060ff8a16021790558551610c3a906005906020890190610d68565b506006805460ff191660ff8781169190911764ffffffff00191661010063ffffffff8816021790915560408051858152848316602082015291831682820152517f955b5b6c6d42994112f574b76bda823b1589faac1590bed4b3cb439fdbe58b9f916060908290030190a15050505050505050565b600160a060020a03918216600090815260026020908152604080832093909416825291909152205490565b600082821115610ce657fe5b50900390565b81810182811015610ae757fe5b60065460009060ff80821660018101821692610d4c9265010000000000820416909102600a0a90610d409063ffffffff610100909104811690829086890a908790610d5316565b9063ffffffff610d5316565b9392505050565b60008183811515610d6057fe5b049392505050565b828054600181600116156101000203166002900490600052602060002090601f016020900481019282601f10610da957805160ff1916838001178555610dd6565b82800160010185558215610dd6579182015b82811115610dd6578251825591602001919060010190610dbb565b50610de2929150610de6565b5090565b6105d791905b80821115610de25760008155600101610dec5600a165627a7a72305820a74b291862635f7d13dc802f252135e602ff46f394c329b0ba50b5d3a3e11cb70029",
  "source": "pragma solidity ^0.4.24;\n\nimport \"./EthBondingCurvedToken.sol\";\n\n\n/// @title  EthPolynomialCurvedToken - A polynomial bonding curve\n///         implementation that is backed by ether.\ncontract EthPolynomialCurvedToken is EthBondingCurvedToken {\n\n    // uint256 constant private PRECISION = 10000000000;\n    string public name;\n    string public symbol;\n    uint8 public exponent;\n    uint32 public slope;\n    uint8 public decimals = 18;\n    bool initalized = false;\n\n    struct Multihash {\n      bytes32 hash;\n      uint8 hash_function;\n      uint8 size;\n    }\n\n    // Multihash public imageHash;\n\n    // @dev constructor        Initializes the bonding curve\n    // constructor() public {\n    // }\n\n    // @dev initContract        Initializes the bonding curve\n    // need to make sure this function is only called once\n    // @param _name             The name of the token\n    // @param _decimals         The number of decimals to use\n    // @param _symbol           The symbol of the token\n    // @param _exponent         The exponent of the curve\n    // @param _hash             digest produced by hashing content using hash function\n    // @param _hashFunction     code for the hash function used\n    // @param _size             length of the digest\n    function initContract(\n        string _name,\n        uint8 _decimals,\n        string _symbol,\n        uint8 _exponent,\n        uint32 _slope,\n        bytes32 _hash,\n        uint8 _hashFunction,\n        uint8 _size\n    ) public payable {\n        require(!initalized);\n        // extra precautions\n        require(poolBalance == 0 && totalSupply_ == 0);\n        initalized = false;\n        name = _name;\n        decimals = _decimals;\n        symbol = _symbol;\n        exponent = _exponent;\n        slope = _slope;\n\n        // don't actually need to do this - can store in logs!\n        // imageHash = Multihash(_hash, _hashFunction, _size);\n        StoreHash(_hash, _hashFunction, _size);\n    }\n\n    // @dev Add comment\n    // @param _hash             digest produced by hashing content using hash function\n    // @param _hashFunction     code for the hash function used\n    // @param _size             length of the digest\n    function addComment(\n        bytes32 _hash,\n        uint8 _hashFunction,\n        uint8 _size\n    ) public {\n        CommentLog(_hash, _hashFunction, _size, msg.sender);\n    }\n\n    /// @dev        Calculate the integral from 0 to t\n    /// @param t    The number to integrate to\n    function curveIntegral(uint256 t) internal returns (uint256) {\n        uint256 nexp = exponent + 1;\n        return (t ** nexp).div(nexp).div(slope).div((10 ** (uint256(decimals) * uint256(exponent))));\n    }\n\n    function priceToMint(uint256 numTokens) public returns(uint256) {\n        return curveIntegral(totalSupply_.add(numTokens)).sub(poolBalance);\n    }\n\n    function rewardForBurn(uint256 numTokens) public returns(uint256) {\n        return poolBalance.sub(curveIntegral(totalSupply_.sub(numTokens)));\n    }\n\n    event CommentLog (\n        bytes32 hash,\n        uint8 hashFunction,\n        uint8 size,\n        address account\n    );\n\n    event StoreHash (\n        bytes32 hash,\n        uint8 hashFunction,\n        uint8 size\n    );\n}",
  "sourcePath": "/home/ryan/Documents/repo/ProteaV2Contracts/contracts/Relevant-Bonding-Curves/EthPolynomialCurvedToken.sol",
  "compiler": {
    "name": "solc",
    "version": "0.4.24+commit.e67f0147.Emscripten.clang"
  },
  "schemaVersion": "2.0.1",
  "updatedAt": "2018-10-28T10:27:04.586Z"
}