{
  "contractName": "EventManager",
  "abi": [
    {
      "constant": true,
      "inputs": [],
      "name": "maxAttendanceBonus",
      "outputs": [
        {
          "name": "",
          "type": "uint256"
        }
      ],
      "payable": false,
      "stateMutability": "view",
      "type": "function"
    },
    {
      "constant": true,
      "inputs": [
        {
          "name": "",
          "type": "uint256"
        }
      ],
      "name": "events",
      "outputs": [
        {
          "name": "name",
          "type": "string"
        },
        {
          "name": "date",
          "type": "string"
        },
        {
          "name": "location",
          "type": "string"
        },
        {
          "name": "participantLimit",
          "type": "uint24"
        },
        {
          "name": "state",
          "type": "uint8"
        },
        {
          "name": "registered",
          "type": "uint24"
        },
        {
          "name": "attended",
          "type": "uint24"
        },
        {
          "name": "organiser",
          "type": "address"
        },
        {
          "name": "requiredStake",
          "type": "uint256"
        },
        {
          "name": "totalStaked",
          "type": "uint256"
        },
        {
          "name": "payout",
          "type": "uint256"
        }
      ],
      "payable": false,
      "stateMutability": "view",
      "type": "function"
    },
    {
      "constant": true,
      "inputs": [],
      "name": "rewardManager",
      "outputs": [
        {
          "name": "",
          "type": "address"
        }
      ],
      "payable": false,
      "stateMutability": "view",
      "type": "function"
    },
    {
      "constant": true,
      "inputs": [],
      "name": "creationCost",
      "outputs": [
        {
          "name": "",
          "type": "uint256"
        }
      ],
      "payable": false,
      "stateMutability": "view",
      "type": "function"
    },
    {
      "constant": true,
      "inputs": [],
      "name": "tokenManager",
      "outputs": [
        {
          "name": "",
          "type": "address"
        }
      ],
      "payable": false,
      "stateMutability": "view",
      "type": "function"
    },
    {
      "constant": true,
      "inputs": [],
      "name": "numberOfEvents",
      "outputs": [
        {
          "name": "",
          "type": "uint256"
        }
      ],
      "payable": false,
      "stateMutability": "view",
      "type": "function"
    },
    {
      "constant": true,
      "inputs": [
        {
          "name": "",
          "type": "uint256"
        },
        {
          "name": "",
          "type": "address"
        }
      ],
      "name": "memberState",
      "outputs": [
        {
          "name": "",
          "type": "uint8"
        }
      ],
      "payable": false,
      "stateMutability": "view",
      "type": "function"
    },
    {
      "constant": true,
      "inputs": [],
      "name": "admin",
      "outputs": [
        {
          "name": "",
          "type": "address"
        }
      ],
      "payable": false,
      "stateMutability": "view",
      "type": "function"
    },
    {
      "inputs": [],
      "payable": false,
      "stateMutability": "nonpayable",
      "type": "constructor"
    },
    {
      "anonymous": false,
      "inputs": [
        {
          "indexed": true,
          "name": "index",
          "type": "uint256"
        },
        {
          "indexed": false,
          "name": "publisher",
          "type": "address"
        }
      ],
      "name": "EventCreated",
      "type": "event"
    },
    {
      "anonymous": false,
      "inputs": [
        {
          "indexed": true,
          "name": "index",
          "type": "uint256"
        },
        {
          "indexed": false,
          "name": "publisher",
          "type": "address"
        },
        {
          "indexed": false,
          "name": "state",
          "type": "uint8"
        }
      ],
      "name": "EventConcluded",
      "type": "event"
    },
    {
      "anonymous": false,
      "inputs": [
        {
          "indexed": true,
          "name": "index",
          "type": "uint256"
        },
        {
          "indexed": false,
          "name": "member",
          "type": "address"
        }
      ],
      "name": "MemberRegistered",
      "type": "event"
    },
    {
      "anonymous": false,
      "inputs": [
        {
          "indexed": true,
          "name": "index",
          "type": "uint256"
        },
        {
          "indexed": false,
          "name": "member",
          "type": "address"
        }
      ],
      "name": "MemberAttended",
      "type": "event"
    },
    {
      "constant": false,
      "inputs": [
        {
          "name": "_tokenManager",
          "type": "address"
        },
        {
          "name": "_rewardManager",
          "type": "address"
        },
        {
          "name": "_creationCost",
          "type": "uint256"
        },
        {
          "name": "_maxAttendanceBonus",
          "type": "uint256"
        }
      ],
      "name": "initContract",
      "outputs": [],
      "payable": false,
      "stateMutability": "nonpayable",
      "type": "function"
    },
    {
      "constant": false,
      "inputs": [
        {
          "name": "_creationCost",
          "type": "uint256"
        },
        {
          "name": "_maxAttendanceBonus",
          "type": "uint256"
        }
      ],
      "name": "updateStakes",
      "outputs": [],
      "payable": false,
      "stateMutability": "nonpayable",
      "type": "function"
    },
    {
      "constant": true,
      "inputs": [
        {
          "name": "_index",
          "type": "uint256"
        }
      ],
      "name": "getEvent",
      "outputs": [
        {
          "name": "",
          "type": "string"
        },
        {
          "name": "",
          "type": "string"
        },
        {
          "name": "",
          "type": "string"
        },
        {
          "name": "",
          "type": "uint24"
        },
        {
          "name": "",
          "type": "uint8"
        },
        {
          "name": "",
          "type": "uint24"
        },
        {
          "name": "",
          "type": "uint256"
        }
      ],
      "payable": false,
      "stateMutability": "view",
      "type": "function"
    },
    {
      "constant": true,
      "inputs": [
        {
          "name": "_index",
          "type": "uint256"
        }
      ],
      "name": "getEventStake",
      "outputs": [
        {
          "name": "",
          "type": "uint256"
        }
      ],
      "payable": false,
      "stateMutability": "view",
      "type": "function"
    },
    {
      "constant": false,
      "inputs": [
        {
          "name": "_name",
          "type": "string"
        },
        {
          "name": "_date",
          "type": "string"
        },
        {
          "name": "_location",
          "type": "string"
        },
        {
          "name": "_participantLimit",
          "type": "uint24"
        },
        {
          "name": "_organiser",
          "type": "address"
        },
        {
          "name": "_requiredStake",
          "type": "uint256"
        }
      ],
      "name": "createEventDebug",
      "outputs": [],
      "payable": false,
      "stateMutability": "nonpayable",
      "type": "function"
    },
    {
      "constant": false,
      "inputs": [
        {
          "name": "_index",
          "type": "uint256"
        },
        {
          "name": "_limit",
          "type": "uint24"
        }
      ],
      "name": "increaseParticipantLimit",
      "outputs": [],
      "payable": false,
      "stateMutability": "nonpayable",
      "type": "function"
    },
    {
      "constant": false,
      "inputs": [
        {
          "name": "_index",
          "type": "uint256"
        }
      ],
      "name": "endEvent",
      "outputs": [],
      "payable": false,
      "stateMutability": "nonpayable",
      "type": "function"
    },
    {
      "constant": false,
      "inputs": [
        {
          "name": "_index",
          "type": "uint256"
        }
      ],
      "name": "cancelEvent",
      "outputs": [],
      "payable": false,
      "stateMutability": "nonpayable",
      "type": "function"
    },
    {
      "constant": false,
      "inputs": [
        {
          "name": "_index",
          "type": "uint256"
        },
        {
          "name": "_member",
          "type": "address"
        }
      ],
      "name": "rsvpDebug",
      "outputs": [],
      "payable": false,
      "stateMutability": "nonpayable",
      "type": "function"
    },
    {
      "constant": false,
      "inputs": [
        {
          "name": "_index",
          "type": "uint256"
        }
      ],
      "name": "confirmAttendance",
      "outputs": [],
      "payable": false,
      "stateMutability": "nonpayable",
      "type": "function"
    },
    {
      "constant": false,
      "inputs": [
        {
          "name": "_from",
          "type": "address"
        },
        {
          "name": "_value",
          "type": "uint256"
        },
        {
          "name": "_data",
          "type": "bytes"
        }
      ],
      "name": "tokenFallback",
      "outputs": [],
      "payable": false,
      "stateMutability": "nonpayable",
      "type": "function"
    },
    {
      "constant": true,
      "inputs": [
        {
          "name": "_member",
          "type": "address"
        },
        {
          "name": "_index",
          "type": "uint256"
        }
      ],
      "name": "payout",
      "outputs": [
        {
          "name": "",
          "type": "uint256"
        }
      ],
      "payable": false,
      "stateMutability": "view",
      "type": "function"
    }
  ],
  "bytecode": "0x608060405260146002556005600355600060065534801561001f57600080fd5b5060078054600160a060020a0319163317905561187d806100416000396000f3006080604052600436106101115763ffffffff7c0100000000000000000000000000000000000000000000000000000000600035041663037b286c81146101165780630b7914301461013d5780630f4ef8a61461030a578063117de2fd1461033b57806314e608131461035f5780632a709b14146103745780632ebe214f14610389578063330a347b146103ab5780633f69babd146103c35780634943fb90146103db5780634a50c4a2146103f65780635b9c86fb1461040b5780635cc2f2c5146104455780636ac71d38146104725780636d1884e0146104965780637a9933a414610619578063c0ee0b8a14610631578063c254f66114610662578063ee225e7b146106b1578063f851a440146106c9575b600080fd5b34801561012257600080fd5b5061012b6106de565b60408051918252519081900360200190f35b34801561014957600080fd5b506101556004356106e4565b604051808060200180602001806020018c62ffffff1662ffffff1681526020018b60ff1660ff1681526020018a62ffffff1662ffffff1681526020018962ffffff1662ffffff16815260200188600160a060020a0316600160a060020a0316815260200187815260200186815260200185815260200184810384528f818151815260200191508051906020019080838360005b838110156102005781810151838201526020016101e8565b50505050905090810190601f16801561022d5780820380516001836020036101000a031916815260200191505b5084810383528e818151815260200191508051906020019080838360005b8381101561026357818101518382015260200161024b565b50505050905090810190601f1680156102905780820380516001836020036101000a031916815260200191505b5084810382528d5181528d516020918201918f019080838360005b838110156102c35781810151838201526020016102ab565b50505050905090810190601f1680156102f05780820380516001836020036101000a031916815260200191505b509e50505050505050505050505050505060405180910390f35b34801561031657600080fd5b5061031f610911565b60408051600160a060020a039092168252519081900360200190f35b34801561034757600080fd5b5061012b600160a060020a0360043516602435610920565b34801561036b57600080fd5b5061012b610b78565b34801561038057600080fd5b5061031f610b7e565b34801561039557600080fd5b506103a960043562ffffff60243516610b8d565b005b3480156103b757600080fd5b506103a9600435610ca8565b3480156103cf57600080fd5b506103a9600435610e24565b3480156103e757600080fd5b506103a9600435602435610f89565b34801561040257600080fd5b5061012b610ff6565b34801561041757600080fd5b5061042f600435600160a060020a0360243516610ffc565b6040805160ff9092168252519081900360200190f35b34801561045157600080fd5b506103a9600160a060020a036004358116906024351660443560643561101c565b34801561047e57600080fd5b506103a9600435600160a060020a03602435166110c6565b3480156104a257600080fd5b506104ae6004356111f3565b6040805162ffffff808716606083015260ff86166080830152841660a082015260c0810183905260e08082528951908201528851909182916020808401928401916101008501918d019080838360005b838110156105165781810151838201526020016104fe565b50505050905090810190601f1680156105435780820380516001836020036101000a031916815260200191505b5084810383528a5181528a516020918201918c019080838360005b8381101561057657818101518382015260200161055e565b50505050905090810190601f1680156105a35780820380516001836020036101000a031916815260200191505b5084810382528951815289516020918201918b019080838360005b838110156105d65781810151838201526020016105be565b50505050905090810190601f1680156106035780820380516001836020036101000a031916815260200191505b509a505050505050505050505060405180910390f35b34801561062557600080fd5b506103a9600435611406565b34801561063d57600080fd5b506103a960048035600160a060020a03169060248035916044359182019101356114a0565b34801561066e57600080fd5b506103a9602460048035828101929082013591813580830192908201359160443591820191013562ffffff60643516600160a060020a036084351660a435611508565b3480156106bd57600080fd5b5061012b600435611692565b3480156106d557600080fd5b5061031f6116a7565b60035481565b60056020908152600091825260409182902080548351601f6002600019610100600186161502019093169290920491820184900484028101840190945280845290929183919083018282801561077b5780601f106107505761010080835404028352916020019161077b565b820191906000526020600020905b81548152906001019060200180831161075e57829003601f168201915b505050505090806001018054600181600116156101000203166002900480601f0160208091040260200160405190810160405280929190818152602001828054600181600116156101000203166002900480156108195780601f106107ee57610100808354040283529160200191610819565b820191906000526020600020905b8154815290600101906020018083116107fc57829003601f168201915b50505060028085018054604080516020601f60001961010060018716150201909416959095049283018590048502810185019091528181529596959450909250908301828280156108ab5780601f10610880576101008083540402835291602001916108ab565b820191906000526020600020905b81548152906001019060200180831161088e57829003601f168201915b50505050600383015460048401546005850154600690950154939462ffffff808416956301000000850460ff16955064010000000085048216946701000000000000008104909216936a0100000000000000000000909204600160a060020a031692908b565b600154600160a060020a031681565b600154600090600160a060020a03163314610985576040805160e560020a62461bcd02815260206004820152601e60248201527f4f6e6c7920726577617264206d616e6167657220617574686f72697365640000604482015290519081900360640190fd5b6000828152600460209081526040808320600160a060020a038716845290915290205483908390600160ff9091161015610a09576040805160e560020a62461bcd02815260206004820152601360248201527f55736572206e6f74207265676973746572656400000000000000000000000000604482015290519081900360640190fd5b6000848152600460209081526040808320600160a060020a038916845290915290205460ff16606314610a86576040805160e560020a62461bcd02815260206004820152601160248201527f55736572206e6f7420617474656e646564000000000000000000000000000000604482015290519081900360640190fd5b6000848152600560205260409020600301546001630100000090910460ff1611610afa576040805160e560020a62461bcd02815260206004820152600f60248201527f4576656e74206e6f7420656e6465640000000000000000000000000000000000604482015290519081900360640190fd5b60008481526005602052604090206003908101546301000000900460ff161415610b37576000848152600560205260409020600401549250610b70565b60008481526005602052604090206003908101546301000000900460ff161415610b705760008481526005602052604090206006015492505b505092915050565b60025481565b600054600160a060020a031681565b60008281526005602052604090206003015482906a01000000000000000000009004600160a060020a03163314610c0e576040805160e560020a62461bcd02815260206004820152601560248201527f4163636f756e74206e6f74206f7267616e697365720000000000000000000000604482015290519081900360640190fd5b60008381526005602052604090206003015462ffffff808416911610610c7e576040805160e560020a62461bcd02815260206004820152601b60248201527f4c696d69742063616e206f6e6c7920626520696e637265617365640000000000604482015290519081900360640190fd5b50600091825260056020526040909120600301805462ffffff191662ffffff909216919091179055565b60008181526005602052604090206003015481906a01000000000000000000009004600160a060020a03163314610d29576040805160e560020a62461bcd02815260206004820152601560248201527f4163636f756e74206e6f74206f7267616e697365720000000000000000000000604482015290519081900360640190fd5b6000828152600560205260409020600301546301000000900460ff16600114610d9c576040805160e560020a62461bcd02815260206004820152601060248201527f4576656e74206e6f742061637469766500000000000000000000000000000000604482015290519081900360640190fd5b6000828152600560205260409020600301805463ff00000019166302000000179055610dc7826116b6565b600082815260056020908152604091829020600301548251338152630100000090910460ff1691810191909152815184927fd63ca43e32cd0869ffa369954947d739e1a8ed576964a78799b601be915fa0bb928290030190a25050565b60008181526005602052604090206003015481906a01000000000000000000009004600160a060020a03163314610ea5576040805160e560020a62461bcd02815260206004820152601560248201527f4163636f756e74206e6f74206f7267616e697365720000000000000000000000604482015290519081900360640190fd5b6000828152600560205260409020600301546301000000900460ff16600114610f18576040805160e560020a62461bcd02815260206004820152601060248201527f4576656e74206e6f742061637469766500000000000000000000000000000000604482015290519081900360640190fd5b6000828152600560209081526040918290206003018054630300000063ff0000001990911617908190558251338152630100000090910460ff1691810191909152815184927fd63ca43e32cd0869ffa369954947d739e1a8ed576964a78799b601be915fa0bb928290030190a25050565b600754600160a060020a03163314610feb576040805160e560020a62461bcd02815260206004820152600e60248201527f4e6f7420617574686f7269657364000000000000000000000000000000000000604482015290519081900360640190fd5b600291909155600355565b60065481565b600460209081526000928352604080842090915290825290205460ff1681565b600754600160a060020a0316331461107e576040805160e560020a62461bcd02815260206004820152600e60248201527f4e6f7420617574686f7269657364000000000000000000000000000000000000604482015290519081900360640190fd5b60008054600160a060020a0395861673ffffffffffffffffffffffffffffffffffffffff19918216179091556001805494909516931692909217909255600291909155600355565b600054600160a060020a03163314611128576040805160e560020a62461bcd02815260206004820152601c60248201527f4e6f74207265676973746572656420746f6b656e206164647265737300000000604482015290519081900360640190fd5b6000828152600460208181526040808420600160a060020a03861685528252808420805460ff19166001179055858452600591829052909220908101549101546111779163ffffffff61176516565b50600082815260056020908152604091829020600301805462ffffff64010000000080830482166001019091160266ffffff00000000199091161790558151600160a060020a0384168152915184927f74ad02ef31090f9adbc46414ca19b1ec26bc9ae26976f1a57b703abc6549c8ac92908290030190a25050565b6000818152600560209081526040808320600381015460048201548254845160026101006001808516159190910260001901909316819004601f810189900489028301890190975286825260609889988998919788978897889792969287019587019462ffffff808416956301000000850460ff1695640100000000909504909116939189918301828280156112ca5780601f1061129f576101008083540402835291602001916112ca565b820191906000526020600020905b8154815290600101906020018083116112ad57829003601f168201915b5050895460408051602060026001851615610100026000190190941693909304601f8101849004840282018401909252818152959c508b9450925084019050828280156113585780601f1061132d57610100808354040283529160200191611358565b820191906000526020600020905b81548152906001019060200180831161133b57829003601f168201915b5050885460408051602060026001851615610100026000190190941693909304601f8101849004840282018401909252818152959b508a9450925084019050828280156113e65780601f106113bb576101008083540402835291602001916113e6565b820191906000526020600020905b8154815290600101906020018083116113c957829003601f168201915b505050505094509650965096509650965096509650919395979092949650565b600081815260046020908152604080832033845290915290205460ff1660011461147a576040805160e560020a62461bcd02815260206004820152601360248201527f55736572206e6f74207265676973746572656400000000000000000000000000604482015290519081900360640190fd5b60009081526004602090815260408083203384529091529020805460ff19166063179055565b600054600160a060020a03163314611502576040805160e560020a62461bcd02815260206004820152601c60248201527f4e6f74207265676973746572656420746f6b656e206164647265737300000000604482015290519081900360640190fd5b50505050565b600054600160a060020a0316331461156a576040805160e560020a62461bcd02815260206004820152601c60248201527f4e6f74207265676973746572656420746f6b656e206164647265737300000000604482015290519081900360640190fd5b6006805460010190819055600090815260056020526040902061158e908a8a6117b6565b5060065460009081526005602052604090206115ae9060010188886117b6565b5060065460009081526005602052604090206115ce9060020186866117b6565b506006805460009081526005602090815260408083206003908101805462ffffff191662ffffff8a16179055845484528184200180547fffff0000000000000000000000000000000000000000ffffffffffffffffffff166a0100000000000000000000600160a060020a0389169081029190911790915584548452928190206004018590559254835192835292517fe43349c008949cf6b65249356e6f918d4aaa0ca79f2b1166df4a4a98c9c16de29281900390910190a2505050505050505050565b60009081526005602052604090206004015490565b600754600160a060020a031681565b60008181526005602081905260408220600381015491015467010000000000000090910462ffffff16908115156116e957fe5b6000848152600560205260409020600390810154905492909104925061174c9161173f9162ffffff808216926117339290916701000000000000009091041663ffffffff61177816565b9063ffffffff6117a116565b829063ffffffff61176516565b6000928352600560205260409092206006019190915550565b8181018281101561177257fe5b92915050565b600082151561178957506000611772565b5081810281838281151561179957fe5b041461177257fe5b600081838115156117ae57fe5b049392505050565b828054600181600116156101000203166002900490600052602060002090601f016020900481019282601f106117f75782800160ff19823516178555611824565b82800160010185558215611824579182015b82811115611824578235825591602001919060010190611809565b50611830929150611834565b5090565b61184e91905b80821115611830576000815560010161183a565b905600a165627a7a72305820fea9acc5800ed35f27d21e3ee5d8d036b4833a659013a4f8a22e76e48e56bf560029",
  "source": "pragma solidity ^0.4.24;\n\nimport \"./zeppelin-solidity/SafeMath.sol\";\nimport \"./RewardIssuerInterface.sol\";\nimport \"./ERC223/ERC223Receiver.sol\";\nimport \"./zeppelin-solidity/ERC20/ERC20Basic.sol\";\n\ncontract EventManager is RewardIssuerInterface, ERC223Receiver {\n    using SafeMath for uint256;\n    address public tokenManager;\n    address public rewardManager;\n\n    uint256 public creationCost = 20; // Defaulting for demo\n    uint256 public maxAttendanceBonus = 5;\n\n    /// For a reward to be issued, user state must be set to 99, meaning \"Rewardable\" this is to be considered the final state of users in issuer contracts\n    mapping(uint256 => mapping(address => uint8)) public memberState;\n    // States:\n    // 0: Not registered\n    // 1: RSVP'd\n    // 99: Attended (Rewardable)\n  \n    struct EventData{\n        string name;\n        string date;\n        string location;\n        uint24 participantLimit;\n        uint8 state;        \n        uint24 registered;\n        uint24 attended;\n        address organiser;\n        // 0: Not created\n        // 1: Created\n        // 2: Concluded\n        // 3: Cancelled\n        uint256 requiredStake;\n        uint256 totalStaked;\n        uint256 payout;\n    }\n\n    mapping(uint256 => EventData) public events;\n    \n    uint256 public numberOfEvents = 0;\n\n    event EventCreated(uint256 indexed index, address publisher);\n    event EventConcluded(uint256 indexed index, address publisher, uint8 state);\n\n    event MemberRegistered(uint256 indexed index, address member);\n    event MemberAttended(uint256 indexed index, address member);\n\n    // Debug admin\n    address public admin;\n    constructor () public {\n        admin = msg.sender;\n    }\n    modifier onlyAdmin() {\n        require(msg.sender == admin, \"Not authoriesd\");\n        _;\n    }\n    function initContract(address _tokenManager, address _rewardManager, uint256 _creationCost, uint256 _maxAttendanceBonus) public onlyAdmin {\n        tokenManager = _tokenManager;\n        rewardManager = _rewardManager;\n        creationCost = _creationCost;\n        maxAttendanceBonus = _maxAttendanceBonus;\n    }\n\n    function updateStakes(uint256 _creationCost, uint256 _maxAttendanceBonus) public onlyAdmin{\n        creationCost = _creationCost;\n        maxAttendanceBonus = _maxAttendanceBonus;\n    }\n\n    // bytes4 CREATE_SIG = bytes4(keccak256(\"createEvent(string,string,string,uint24,address,uint256)\"));\n    function createEvent(\n        string _name, string _date, string _location, \n        uint24 _participantLimit, address _organiser, uint256 _requiredStake) \n        private {\n        require(forwardStake(creationCost, _organiser), \"Must forward funds to the reward manager\");\n        numberOfEvents += 1;\n        events[numberOfEvents].name = _name;\n        events[numberOfEvents].date = _date;\n        events[numberOfEvents].location = _location;\n        events[numberOfEvents].participantLimit = _participantLimit;\n        events[numberOfEvents].organiser = _organiser;\n        events[numberOfEvents].requiredStake = _requiredStake;\n        emit EventCreated(numberOfEvents, _organiser);\n    }\n\n    function getEvent(uint256 _index) public view returns(string, string, string, uint24, uint8, uint24, uint256){\n        return (events[_index].name, events[_index].date, events[_index].location, events[_index].participantLimit, \n            events[_index].state, events[_index].registered, events[_index].requiredStake);\n    }\n\n    // Debug, remove\n    function getEventStake(uint256 _index) public view returns(uint256){\n        return events[_index].requiredStake;\n    }\n\n    function createEventDebug(\n        string _name, string _date, string _location, \n        uint24 _participantLimit, address _organiser, uint256 _requiredStake) \n        external onlyToken {\n        numberOfEvents += 1;\n        events[numberOfEvents].name = _name;\n        events[numberOfEvents].date = _date;\n        events[numberOfEvents].location = _location;\n        events[numberOfEvents].participantLimit = _participantLimit;\n        events[numberOfEvents].organiser = _organiser;\n        events[numberOfEvents].requiredStake = _requiredStake;\n        emit EventCreated(numberOfEvents, _organiser);\n    }\n\n    function increaseParticipantLimit(uint256 _index, uint24 _limit) public onlyManager(_index){\n        require(events[_index].participantLimit < _limit, \"Limit can only be increased\");\n        events[_index].participantLimit = _limit;\n    }\n\n    function endEvent(uint256 _index) public onlyManager(_index){\n        require(events[_index].state == 1, \"Event not active\");\n        events[_index].state = 2;\n        calcPayout(_index);\n        emit EventConcluded(_index, msg.sender, events[_index].state);\n    }\n\n    function cancelEvent(uint256 _index) public onlyManager(_index){\n        require(events[_index].state == 1, \"Event not active\");\n        events[_index].state = 3;\n        emit EventConcluded(_index, msg.sender, events[_index].state);\n    }\n\n    function forwardStake(uint256 _amount, address _member) internal returns(bool) {\n        ERC20Basic token = ERC20Basic(tokenManager);\n        token.transfer(_member, _amount);    \n        return true;\n    }\n\n    // bytes4 RSVP_SIG = bytes4(keccak256(\"rsvp(uint256,address)\"));\n    function rsvp(uint256 _index, address _member) private {\n        require(forwardStake(events[_index].requiredStake, _member), \"Must forward funds to the reward manager\");\n        /// Send stake to reward manager\n        /// Updated state\n        memberState[_index][_member] = 1;\n        events[_index].totalStaked.add(events[_index].requiredStake);\n        events[_index].registered += 1;\n        emit MemberRegistered(_index, _member);\n    }\n    function rsvpDebug(uint256 _index, address _member) external onlyToken {\n        /// Send stake to reward manager\n        /// Updated state\n        memberState[_index][_member] = 1;\n        events[_index].totalStaked.add(events[_index].requiredStake);\n        events[_index].registered += 1;\n        emit MemberRegistered(_index, _member);\n    }\n\n    // Manual exposed attend until Proof of Attendance partial release mechanisim is finished\n    function confirmAttendance(uint256 _index) public {\n        require(memberState[_index][msg.sender] == 1, \"User not registered\");\n        memberState[_index][msg.sender] = 99;\n    }\n\n    // 2 kinds of request with stake \n    // 1. Create, which has all the event info and the creation stake\n    // 2. an event index and the required stake\n    // event Testing(bytes4 signure, bytes4 signure2, bytes4 signure4, bytes data);\n    function tokenFallback(address _from, uint _value, bytes _data) external onlyToken {\n        // Option 1\n        // bytes4 functionSig;\n        // for (uint i = 0; i < 20; i++){\n        //     functionSig ^= (bytes4(0xff000000)&_data[i])>>(i*8);\n        // }\n        // if(functionSig == CREATE_SIG){\n\n        // } else if (functionSig == RSVP_SIG){\n\n        // }\n        // address(this).call();\n    }\n\n    function calcPayout(uint256 _index) internal {\n        uint256 reward = events[_index].totalStaked / events[_index].attended; \n        events[_index].payout = reward.add(maxAttendanceBonus.mul(events[_index].attended).div(events[_index].participantLimit));\n    }\n\n    function payout(address _member, uint256 _index) external view onlyRewardManager onlyMember(_member, _index) returns(uint256){\n        require(memberState[_index][_member] == 99, \"User not attended\");\n        require(events[_index].state > 1, \"Event not ended\");\n        if(events[_index].state == 3){\n            return events[_index].requiredStake;\n        } else if(events[_index].state == 3) {\n            return events[_index].payout;\n        }\n    }\n    \n    modifier onlyMember(address _member, uint256 _index){\n        require(memberState[_index][_member] >= 1, \"User not registered\");\n        _;\n    }\n\n    modifier onlyToken(){\n        require(msg.sender == address(tokenManager), \"Not registered token address\");\n        _;\n    }\n\n    modifier onlyRewardManager() {\n        require(msg.sender == rewardManager, \"Only reward manager authorised\");\n        _;\n    }\n\n    modifier onlyManager(uint256 _index){\n        require(events[_index].organiser == msg.sender, \"Account not organiser\");\n        _;\n    }\n\n}\n\n/*\n    This contract diverts stake to the reward manager, sets up a user in a standardised struct\n\n    rewardable = 99\n\n    The reward manager if it finds in the user mapping state = 99 it allows payment, the amount being a standardised function that returns a uint\n\n\n    Calculating the reward in relation to attendance rate is done in that function\n*/",
  "sourcePath": "/home/ryan/Documents/repo/ProteaV2Contracts/contracts/EventManager.sol",
  "compiler": {
    "name": "solc",
    "version": "0.4.24+commit.e67f0147.Emscripten.clang"
  },
  "schemaVersion": "2.0.1",
  "updatedAt": "2018-10-28T10:27:04.582Z"
}